:020000040800F2
:1000000000000220654C0008C5070008C70700086B
:10001000C9070008CB070008CD0700080000000052
:10002000000000000000000000000000CF070008F2
:10003000D107000800000000D3070008D50700081A
:10004000B54C0008B54C0008B54C0008B54C00088C
:10005000B54C0008B54C0008B54C0008B54C00087C
:10006000B54C0008B54C0008B54C0008B54C00086C
:10007000B54C0008B54C0008B54C0008B54C00085C
:10008000B54C0008B54C0008B54C00080000000055
:10009000000000000000000000000000B54C000857
:1000A000B54C0008B54C0008B54C0008B54C00082C
:1000B000B54C0008B54C0008B54C0008B54C00081C
:1000C000B54C0008B54C0008B54C0008B54C00080C
:1000D000B54C0008B54C0008B54C00080000000005
:1000E000B54C0008B54C0008B54C000800000000F5
:1000F000000000000000000000000000B54C0008F7
:1001000000000000B54C0008B54C0008B54C0008D4
:1001100000000000000000000000000000000000DF
:10012000B54C0008B54C0008B54C0008B54C0008AB
:10013000B54C0008000000000000000000000000B6
:10014000000000000000000000000000DD070008C3
:10015000B54C0008B54C0008B54C0008B54C00087B
:10016000B54C0008B54C000800000000000000007D
:10017000000000000000000000000000000000007F
:1001800000000000B54C0008000000000000000066
:08019000B54C0008B54C000855
:1001A000034613F8012B002AFBD1181A01387047B7
:1001B00001F0FF01102A2BDB10F0070F08D010F818
:1001C000013B013A8B422DD010F0070F42B3F6D11C
:1001D000F0B441EA012141EA014122F007047FF035
:1001E00000070023F0E80256083C85EA010586EA8C
:1001F000010685FA47F5A3FA87F586FA47F6A5FAC8
:1002000087F68EB9EED1F0BC01F0FF0102F00702D3
:1002100032B110F8013B013A83EA010313B1F8D17E
:100220000020704701387047002D06BF354603385F
:10023000073815F0010F07D1013015F4807F02BF98
:10024000013015F4C03F0130F0BC0138704700BFE9
:1002500053B94AB9002908BF00281CBF4FF0FF312D
:100260004FF0FF3000F00CB8ADF1080C6DE904CE92
:1002700005F0C8F9DDF804E0DDE9022304B07047B9
:10028000704700BF0348044B834202D0034B03B1C5
:100290001847704750010020500100200000000066
:1002A0000548064B1B1AD90F01EBA301491002D0D8
:1002B000034B03B118477047500100205001002044
:1002C0000000000010B5064C237843B9FFF7DAFFB1
:1002D000044B13B10448AFF300800123237010BD19
:1002E0005001002000000000FC58000808B5054B34
:1002F0001BB105490548AFF30080BDE80840FFF792
:10030000CFBF00BF0000000054010020FC580008CF
:1003100070B58AB005AD002405940694079408943E
:1003200009940194214B1A6B42F004021A631A6B70
:1003300002F004020192019A02941A6B42F08002C8
:100340001A631A6B02F080020292029A03941A6BEB
:1003500042F001021A631A6B02F001020392039A3F
:1003600004941A6B42F002021A631B6B03F002033F
:100370000493049B0E4E2246F821304603F076F893
:100380004FF400530593069407942946094802F058
:1003900089FFF823059301230693079408942946BF
:1003A000304602F07FFF0AB070BD00BF0038024047
:1003B000000002400008024072B6FEE700B585B0BA
:1003C000002300930193029303931448144A02609C
:1003D0004FF48032426083600361037680F82030FE
:1003E000C362104A8262C3600122C26180F8303069
:1003F000426103F0BDF960B900230093012201922C
:1004000002936946054803F0E3FA20B905B05DF8A8
:1004100004FBFFF7D1FFFFF7CFFF00BFB8030020B9
:10042000002001400100000F00B58FB000230A93A7
:100430000B930C930D9308930993019302930393E9
:1004400004930593069307931E481F4A0260436076
:10045000836041F64C52C2600361836100F0E0FDAD
:1004600030BB4FF480530A930AA9164800F0D9FE16
:1004700000BB144800F000FEF0B900230893099374
:1004800008A9104800F0CEFFC0B96023019340F2E4
:10049000D513029300220392059201A9094800F0A6
:1004A00045FE68B9074800F009FA0FB05DF804FB93
:1004B000FFF782FFFFF780FFFFF77EFFFFF77CFF6C
:1004C000FFF77AFF700300200004004010B594B0DD
:1004D00008AC30220021204604F010FC00230393D6
:1004E00004930593069307930193204A116C41F0FE
:1004F00080511164126C02F080520192019A0293B1
:100500001B4B1A6842F440421A601B6803F44043D4
:100510000293029B012308934FF480330993022333
:100520000E934FF480030F930F2310939023119396
:100530000423129305231393204602F0ADFB80B9E8
:100540000F23039302230493002305934FF4805257
:1005500006920793012103A802F0EEFD18B914B02A
:1005600010BDFFF729FFFFF727FF00BF003802404B
:100570000070004000B583B003F020F8FFF7A6FF3D
:10058000FFF7C6FEFFF71AFF00F0E8F9FFF74CFF90
:1005900000217C4800F0D4FE4FE0204603F014FA1E
:1005A000794B186053E079490868834203D3784A4D
:1005B0000521117057E0991A8900801AB1FBF0F2F9
:1005C000013273490A704EE06F4B1868642606FBCF
:1005D00000F442F2107200FB02F26E49A1FB0235F8
:1005E000521B05EB5205ED0A40F6E44303FB00F015
:1005F000694AA2FB05325309A1FB04C2A41A02EB0B
:100600005402664CA1FB00C1401A01EB5001C90A1B
:10061000009106FB1353D20A6149204604F04CFBBB
:100620002046FFF7BDFD81B2204600F091FA5D4BF8
:1006300000221A701E2002F0EDFF5B4C204603F0F2
:10064000C3F86421204603F063F90028A5D056487A
:1006500003F03EF94C4B1B68544A12689342A2D8EF
:100660004B4A00211170524AA2FB03231B09484C3C
:100670002370D9B2012505FA01F10139C9B22170FF
:10068000C943C9004B4E002201F0F801304602F088
:10069000EDFE21782A46C900304602F0E7FE1E2012
:1006A00002F0B8FF3F4B1B78002BC3D0502B8BD0F0
:1006B000252B89D0732B1ED0642BBBD1314B1B68EB
:1006C0005A6BB2F5ED7F49D95A6B344C3A49204602
:1006D00004F0F2FA2046FFF763FD81B2204600F0F5
:1006E00037FA284B1A68536BA3F2D51353632D4B7B
:1006F00000221A709EE7234B1B68596B41F6763235
:10070000914216D85A6B254C2B49204604F0D4FA56
:100710002046FFF745FD81B2204600F019FA194B3B
:100720001A68536B03F2D51353631E4B00221A70E1
:1007300080E71A4C2149204604F0BEFA2046FFF714
:100740002FFD81B2204600F003FA0E4B1B6841F6E4
:100750004C525A63134B00221A706BE70F4C184926
:10076000204604F0A9FA2046FFF71AFD81B2204680
:1007700000F0EEF9034B1B6805225A63094B002277
:100780001A7057E7700300206C030020000000205F
:100790006B030020010110001F85EB516C0100204C
:1007A000145900086C020020B80300200400002047
:1007B000F119760500000240705900088C590008B4
:1007C000A8590008FEE7FEE7FEE7FEE7FEE77047F0
:1007D0007047704708B502F00BFF08BD08B5024826
:1007E00001F08FF908BD00BF001B002082B000217E
:1007F00000910B4B5A6C42F480425A645A6C02F4DA
:1008000080420092009A01911A6C42F080521A6460
:100810001B6C03F080530193019B02B0704700BF33
:100820000038024000B589B0002303930493059378
:1008300006930793026803F1804303F590339A42CD
:1008400002D009B05DF804FB0021019103F58C335F
:100850005A6C42F480725A645A6C02F480720192AB
:10086000019A02911A6B42F001021A631B6B03F0AA
:1008700001030293029B012303930323049303A91F
:10088000014802F00FFDDCE7000002400268094B5E
:100890009A4200D0704782B000230193064B1A6C35
:1008A00042F002021A641B6C03F002030193019BE5
:1008B00002B07047000400400038024000B587B025
:1008C00000230193029303930493059302680E4B54
:1008D0009A4202D007B05DF804FB002300930B4B53
:1008E0001A6B42F002021A631B6B03F002030093BF
:1008F000009B1023019302230293059301A904484E
:1009000002F0D0FCE6E700BF0004004000380240DF
:100910000004024010B503460C4A0D490D4800681A
:1009200040B10C4800680344521A934206D8094A61
:10093000136010BD0748084C0460F2E704F0E6F9C4
:100940000C2303604FF0FF30F3E700BF00000220EC
:1009500000040000000400203821002008B5002217
:100960000F49104803F014F970B90F490D4803F00E
:1009700026F960B90D490B4804F017F950B9094838
:1009800003F03DF948B908BDFFF716FDEDE7FFF7A5
:1009900013FDEFE7FFF710FDF1E7FFF70DFDF2E7BD
:1009A0003C00002004040020BC000020580000206F
:1009B00012230B80004870472800002004230B807E
:1009C0000048704724000020002393421ED200B547
:1009D00010E00CF1370C01F813C000014FEA430C92
:1009E0000CF1010C4FF0000E01F80CE00133DBB20A
:1009F000934209D24FEA107CB0F1204FE9D20CF1BA
:100A0000300C01F813C0E8E75DF804FB7047000004
:100A100038B50B4BD3F8100AD3F8144AD3F8183A68
:100A2000C01800D138BD074D08222946FFF7CCFF7A
:100A3000042205F110012046FFF7C6FFF2E700BFD0
:100A40000070FF1F0A00002008B51A230B80FFF773
:100A5000DFFF014808BD00BF0800002008B50A46B6
:100A600028B90549054803F019FE034808BD0249A5
:100A7000024803F013FEF8E7E0060020C059000822
:100A800010B50A46034C2146034803F007FE2046F2
:100A900010BD00BFE0060020DC59000808B50A467A
:100AA00028B90549054803F0F9FD034808BD024986
:100AB000024803F0F3FDF8E7E0060020F0590008D3
:100AC00008B50A4628B90549054803F0E7FD03487B
:100AD00008BD0249024803F0E1FDF8E7E006002006
:100AE000FC59000800207047002070470020704724
:100AF00070B504460D460A4E0146304604F06EF8C5
:100B0000304604F092F8074EFF220021304604F0F0
:100B1000F5F82A682146304604F024F9002070BD1B
:100B2000040400206C02002010B5064C0022064987
:100B3000204604F045F80549204604F04FF800200F
:100B400010BD00BF04040020E0080020E0100020D9
:100B5000094BD3F8BC32D3F814320BB101207047E3
:100B600010B5054C0A460146204604F029F82046F7
:100B700004F040F810BD00BF0404002030B589B077
:100B80000023039304930593069307930368B3F13B
:100B9000A04F01D009B030BD03AA00250195174C24
:100BA000236B43F001032363236B03F001030193E1
:100BB000019B4FF4C0530393022304930323069332
:100BC0000A23079311460E4802F06CFB636B43F057
:100BD000800363630295636C43F480436364636CD6
:100BE00003F480430293029B2A462946432002F0E5
:100BF00097FC432002F0A4FCCCE700BF0038024081
:100C00000000024008B500F29C41D0F8E00403F077
:100C10000CF808BD08B501EBC10300EB8303D3F862
:100C20006022D0F8E00403F0CEF808BD08B501EB6F
:100C3000C10300EB83031A6AD0F8E00403F026F93D
:100C400008BD08B5D0F8E00403F06BF808BD10B596
:100C50000446C379022B09D10121D4F8E00403F042
:100C600043F8D4F8E00403F00CF810BDFFF7A4FB40
:100C7000F2E7000010B50446D0F8E00403F037F8BE
:100C80002268D2F8003E43F00103C2F8003EE37A46
:100C900023B1034A136943F00603136110BD00BF7B
:100CA00000ED00E008B5D0F8E00403F02EF808BD30
:100CB00008B5D0F8E00403F05AF808BD08B5D0F83C
:100CC000E00403F03EF808BD08B5D0F8E00403F0F6
:100CD00064F808BD08B5D0F8E00403F060F808BD7A
:100CE00002780AB10020704710B503461548C0F8D5
:100CF000E034C3F8C8024FF0A0430360042303713B
:100D00000222C2710023837142728372C372037321
:100D10008373C37300F02CFC80B90A4C80212046F9
:100D200001F0F4F940220021204601F0C9F98022A7
:100D30000121204601F0C4F9002010BDFFF73CFB63
:100D4000EBE700BF001B0020D0F8C83211F0800F85
:100D500008D101F07F0101EBC10103EB810393F89E
:100D60005602704701F07F0101EBC10103EB8103E3
:100D7000987D704708B5D0F8C80200F0FDFD08BDA9
:100D800000487047E01800207047032805D8DFE8C6
:100D900000F005040205012070470320704708B5E4
:100DA000D0F8C80200F065FCFFF7EFFF08BD08B5FA
:100DB00094461A466346D0F8C80200F03AFDFFF7A1
:100DC000E4FF08BD08B5D0F8C80200F078FDFFF7D1
:100DD000DCFF08BD08B5D0F8C80200F0FBFDFFF746
:100DE000D4FF08BD08B5D0F8C80200F036FEFFF702
:100DF000CCFF08BD08B5D0F8C80200F007FDFFF72A
:100E0000C4FF08BD08B5D0F8C80200F0BEFDFFF76A
:100E1000BCFF08BD08B5D0F8C80200F088FDFFF798
:100E2000B4FF08BD30B4026A036A23F00103036211
:100E30004568836923F073030C681C4322F00202A7
:100E40008B6813430B4A904206D0456084614A6820
:100E50004263036230BC704723F00803CA681A4338
:100E600022F0040325F440754A692A438D6915432D
:100E7000EBE700BF0000014030B4036A026A22F4CD
:100E8000807202624468C26922F073020D681543E1
:100E900023F400738A6843EA02230D4A904206D085
:100EA0004460C5614A68C263036230BC704723F482
:100EB0000063CA6843EA022323F4806324F44054A5
:100EC0004A6944EA02148A6944EA0214E8E700BF66
:100ED0000000014030B4036A026A22F480520262C8
:100EE0004468C26922F4E6420D6842EA052223F40E
:100EF00000538D6843EA0533074DA84206D044608D
:100F0000C2614A680264036230BC704724F48044C2
:100F10004D6944EA8514F2E70000014010B4036A09
:100F2000046A24F001040462846924F0F00C4CEAA1
:100F3000021223F00A030B43826103625DF8044B43
:100F4000704710B4036A046A24F0100404628469D0
:100F500024F4704C4CEA023223F0A00343EA01135C
:100F6000826103625DF8044B7047836823F070036D
:100F70000B4343F007038360704770470368274AB9
:100F800090420ED0B0F1804F0BD0A2F57C4290423F
:100F900007D002F58062904203D002F58062904251
:100FA00003D123F070034A6813431C4A90421AD0BD
:100FB000B0F1804F17D0A2F57C42904213D002F5D9
:100FC000806290420FD002F5806290420BD002F511
:100FD0009A32904207D002F58062904203D002F527
:100FE0008062904203D123F44073CA68134323F014
:100FF00080034A6913438A68C2620A688262074AA8
:10100000904207D0026842F004020260012242616D
:10101000036070470A690263F4E700BF0000014003
:1010200040B310B5044690F83D30F3B1022384F884
:101030003D30214651F8040BFFF7A0FF012384F84F
:10104000463084F83E3084F83F3084F8403084F8ED
:10105000413084F8423084F8433084F8443084F8D6
:10106000453084F83D30002010BD80F83C30FFF75B
:101070000DFCDBE70120704740B310B5044690F843
:101080003D30F3B1022384F83D30214651F8040B82
:10109000FFF774FF012384F8463084F83E3084F86B
:1010A0003F3084F8403084F8413084F8423084F88E
:1010B000433084F8443084F8453084F83D300020D3
:1010C00010BD80F83C30FFF758FFDBE70120704788
:1010D00030B4036A026A22F0100202624468826934
:1010E00022F4E6420D6842EA052223F020038D68CF
:1010F00043EA05130C4DA84206D0446082614A6859
:101100008263036230BC704723F08003CD6843EAFA
:10111000051323F0400324F440644D6944EA850438
:101120008D6944EA8504E8E70000014038B590F88D
:101130003C30012B66D004460D46012380F83C303C
:101140000C2A5AD8DFE802F0075959591B59595946
:101150003059595944000068FFF764FE22689369CA
:1011600043F0080393612268936923F004039361B9
:101170002268936929690B43936100203EE000686F
:10118000FFF7A6FF2268936943F400639361226826
:10119000936923F48063936122689369296943EA20
:1011A00001239361002029E00068FFF765FE2268B3
:1011B000D36943F00803D3612268D36923F00403A1
:1011C000D3612268D36929690B43D361002015E0FC
:1011D0000068FFF77FFE2268D36943F40063D361A0
:1011E0002268D36923F48063D3612268D3692969B3
:1011F00043EA0123D361002000E00120002384F8AA
:101200003C3038BD0220FCE710B4846824F47F4CE5
:1012100042EA03220A4342EA0C0282605DF8044B70
:10122000704790F83C30012B78D010B5044601236C
:1012300080F83C30022380F83D300268936823F444
:101240007F4323F0770393600B68602B4CD023D847
:10125000402B54D011D8202B03D00AD80BB1102B1F
:1012600005D119462068FFF780FE002028E0012004
:1012700026E0302BF5D0012022E0502B0AD1CA689D
:1012800049680068FFF74AFE50212068FFF76DFEAD
:10129000002015E0012013E0B3F5805F3AD0B3F5EC
:1012A000005F14D0702B37D1CB684A68896800681A
:1012B000FFF7AAFF2268936843F07703936000204A
:1012C000012384F83D30002384F83C3010BDCB6806
:1012D0004A6889680068FFF797FF2268936843F4BB
:1012E000804393600020EBE7CA6849680068FFF715
:1012F00028FE60212068FFF738FE0020E0E7CA687A
:1013000049680068FFF70AFE40212068FFF72DFEBC
:101310000020D5E70020D3E70120D1E70220704765
:1013200001F01F014FF0010C0CFA01FC036A23EAE3
:101330000C030362036A8A40134303627047000090
:1013400010B50446084689BB94F83E30013B18BFEF
:101350000123002B60D100283ED1022384F83E30C7
:10136000012201462068FFF7DBFF23682C4A9342E5
:1013700042D023682A4A934243D0B3F1804F40D0F1
:10138000A2F57C4293423CD002F58062934238D071
:1013900002F58062934234D002F59A32934230D003
:1013A0001A6842F001021A60002034E0042907D0D4
:1013B00008290BD094F84130013B18BF0123C8E73E
:1013C00094F83F30013B18BF0123C2E794F8403046
:1013D000013B18BF0123BCE7042805D0082807D02B
:1013E000022384F84130BBE7022384F83F30B7E79B
:1013F000022384F84030B3E75A6C42F400425A6446
:10140000B7E79A6802F00702062A07D01A6842F086
:1014100001021A60002010BD0120FCE70020FAE75D
:101420000000014090F83C20012A35D010B403465A
:10143000012280F83C20022280F83D20026850689A
:10144000946820F0700C086840EA0C0050601A683C
:101450001248824212D0B2F1804F0FD0A0F57C40EA
:1014600082420BD000F58060824207D000F5806098
:10147000824203D000F59A30824204D124F08004E5
:10148000496821439160012283F83D20002083F8C0
:101490003C005DF8044B704702207047000001409B
:1014A0002DE9F04383B0D0F8008001EBC10300EBDD
:1014B00083039A6A5B6A9A4254D807460C469B1A81
:1014C00001EBC10200EB8202D2699A4200D31A46B4
:1014D00002F103094FEA990915E006F103094FEA01
:1014E0009909BB7904EBC40507EB8505296A0093CC
:1014F000B3B2E2B2404601F04AF92B6A33442B62A0
:10150000AB6A3344AB6208EB441303F510639B6989
:101510009BB24B4512D304EBC40307EB83039A6AD7
:101520005B6A9A420AD24BB19B1A04EBC40207EBE6
:101530008202D6699E42D0D31E46CEE704EBC40396
:1015400007EB83077A6ABB6A9A420FD804F00F044C
:101550000122A240D8F8343823EA0203C8F834380C
:10156000002000E0012003B0BDE8F0830020FAE78E
:1015700030B583B000287AD00446056890F89534D9
:10158000C3B1032384F89534B5F1A04F17D0206878
:1015900000F0AEFE237C8DF80030231D0ECB2068BA
:1015A00000F0E5FD70B1022384F89534012528464A
:1015B00003B030BD80F89434FFF7E0FAE1E7002390
:1015C000A371E4E70021206801F0F7FA0246B8B9F8
:1015D00003462079984218D903EBC30104EB81013B
:1015E000012048750B75CB8500200876C86108621C
:1015F00003EBC30104EB810148620133DBB2E8E78E
:10160000022384F895340125D1E7904217D902EBE3
:10161000C20304EB8303002183F8551283F854229C
:1016200083F85812C3F85C12C3F8601202EBC203CD
:1016300004EB8303C3F864120132D2B2E5E7237CE2
:101640008DF80030231D0ECB206800F0A7FE054664
:1016500020B1022384F895340125A8E700236374A0
:10166000012384F89534206801F066FA9FE701258C
:101670009DE7036890F89424012A1AD010B5044617
:10168000012280F89424DA6812F0400F02D0427BE5
:10169000012A09D0206800F025FE206801F03EFAFA
:1016A000002084F8940410BD9A6B42F480329A634F
:1016B000F0E702207047000070B504460D46006850
:1016C000066C00EB411303F530639A68A179012998
:1016D00011D038498E4256D03DB905EBC50304EB15
:1016E0008303D3F86432002B5ED0E9B22046FFF7C3
:1016F00091FA002070BD12F0080F09D02E498E42D9
:10170000F7D912F4004FF4D04FF400429A60F0E79A
:1017100012F0200F02D020229A60EAE712F0280F80
:10172000E7D125498E4206D912F4004F03D04FF479
:1017300000429A60DDE705EBC50204EB8202D2F8B5
:1017400074121B69C3F31203CB1AC2F868327DB955
:1017500005EBC50204EB8202D2F864226AB105EB04
:10176000C50204EB8202D2F860121944C2F860127A
:10177000E9B22046FFF74EFABBE704F29C42012192
:1017800001F05AFAF4E712F4004F03D04FF400428C
:101790009A60AEE712F0200F01D020229A60E9B2E1
:1017A0002046FFF737FAA4E704F29C42002101F03B
:1017B00043FA9AE70A31544F0A30544F38B5044679
:1017C00003681D6C03EB4113D3F8081B0E4A9542C6
:1017D00007D903F5306311F4004F02D04FF40042F3
:1017E0009A602046FFF70EFA074B9D4202D9A37973
:1017F000012B01D0002038BD04F29C420121206859
:1018000001F01AFAF6E700BF0A30544F90F894340A
:10181000012B0CD010B50446012380F89434417498
:10182000006801F06BF9002084F8940410BD0220D8
:10183000704738B505468C4611F0800F2BD101F06A
:101840000F0E0EEBCE04A40004F514740444211D05
:101850000EEBCE0E00EB8E0E00208EF855020CF033
:101860000F0C81F800C0C2F30A028A600B714A783B
:101870000AB1A1F81AC0022B1CD095F89434012BA0
:101880001BD0012385F89434286800F064FE002002
:1018900085F8940438BD01F00F0000EBC001890009
:1018A00010312944043100EBC00005EB8000012415
:1018B0004475D4E700234B71DFE70220EAE710B557
:1018C00004460A4611F0800F20D101F00F0000EB12
:1018D000C0039B0003F514732344191D00EBC000E3
:1018E00004EB8000002380F8553202F00F020A70EA
:1018F00094F89434012B18D0012384F89434206890
:1019000000F076FE002084F8940410BD01F00F0072
:1019100000EBC0039B0010332344191D00EBC000F3
:1019200004EB800001234375DFE70220EDE710B5EB
:10193000144601F00F0C0CEBCC01890001F5147179
:10194000014404310CEBCC0E00EB8E0ECEF860227D
:10195000CEF864320023CEF868328EF855328EF815
:1019600054C28279012A04D0006800F027FF0020C9
:1019700010BDCEF87042F7E701F00F0101EBC10195
:1019800000EB8100D0F86802704710B5144601F0F2
:101990000F0C0CEBCC0189001031014404310CEB2D
:1019A000CC0E00EB8E0ECEF82020CEF82430002393
:1019B000CEF8283001238EF815308EF814C08279C5
:1019C0009A4204D0006800F0F9FE002010BDCEF865
:1019D0003040F7E738B501F00F050279AA4238D355
:1019E00004460B4611F0800F1FD101EBC1018900A5
:1019F00001F514710144043103EBC30300EB8303CD
:101A0000002283F8552201238B700D7094F89434D2
:101A1000012B20D0012384F89434206801F013F8BE
:101A200085B1002084F8940438BD05EBC501890018
:101A300010310144043105EBC50300EB830301229F
:101A40005A75E0E704F29C42A179206801F0F4F8AD
:101A5000E7E70120E8E70220E6E701F00F0302795B
:101A60009A4230D310B5044611F0800F1ED103EB1B
:101A7000C301890001F514710144043103EBC30271
:101A800000EB8202002082F8550200228A700B705F
:101A900094F89434012B18D0012384F894342068EE
:101AA00000F0FEFF002084F8940410BD03EBC30196
:101AB000890010310144043103EBC30200EB8202C0
:101AC00001205075E1E7012070470220EDE708B5DD
:101AD00011F0800F0CD101F00F0101EBC101890061
:101AE00001F5147101440431006800F0F1FD08BDF6
:101AF00001F00F0101EBC1018900103101440431F3
:101B0000F2E72DE9F04F83B004460568284601F05E
:101B100050F810B103B0BDE8F08F0646206801F020
:101B200019F80028F6D005F50067BB68C3F30D234C
:101B3000C4F8D434206801F00DF810F0020F04D07E
:101B40002268536903F002035361206801F002F830
:101B500010F0100F15D02268936923F010039361E1
:101B6000D5F8208008F00F0908F4F013B3F5802FA2
:101B70004CD0B3F5402F6FD02268936943F0100327
:101B80009361206800F0E6FF10F4002F76D1206802
:101B900000F0E0FF10F4802F40F0E080206800F0BB
:101BA000D9FF0028C0F26181206800F0D3FF10F453
:101BB000006F09D0BB6813F0010F40F06E812268FE
:101BC000536903F400635361206800F0C3FF10F40D
:101BD000805F40F06681206800F0BCFF10F4005F79
:101BE00040F0B381206800F0B5FF10F0080F40F01E
:101BF000C481206800F0AEFF10F0800F00F0D781A4
:101C0000AB6923F08003AB610126C0E147F6F073B6
:101C100018EA030FB0D04FEA181A4FEAC90301932C
:101C200009EBC90B04EB8B0BC8F30A12DBF860124B
:101C3000284600F0E5FEDBF86032CAF30A0A534496
:101C4000CBF86032DBF86832019A4A4404EB820236
:101C50005344C2F868328FE7082204F29C412846B8
:101C600000F0CEFE09EBC90304EB8303D3F868222E
:101C7000C8F30A184244C3F868227DE7206800F0E0
:101C80006DFF8046B14635E005EB49130122C3F8EC
:101C9000082B49462046FFF70FFD3CE005EB4913B2
:101CA0000822C3F8082B49462046FFF787FD35E098
:101CB00009EBC90304EB830393F85732012B41D09E
:101CC00005EB49130222C3F8082B1AF0200F04D0A9
:101CD00005EB49132022C3F8082B1AF4005F05D046
:101CE00005EB49134FF40052C3F8082B09F1010921
:101CF0004FEA5808B8F1000F3FF449AF18F0010F50
:101D0000F4D05FFA89FB5946206800F037FF82461D
:101D100010F0010FB8D11AF0080FBFD11AF0100F50
:101D200004D005EB49131022C3F8082B1AF0020F58
:101D3000CBD06B6913F0800FBAD07B6843F480631B
:101D40007B60B5E709EBC90304EB8303002283F84A
:101D5000572259462046FEF7ABFFB1E7206800F056
:101D600005FF8046B14625E059462046FEF75EFF56
:101D70001AF0080F04D005EB49130822C3F808290C
:101D80001AF0100F04D005EB49131022C3F80829EC
:101D90001AF0400F04D005EB49134022C3F808297C
:101DA0001AF0020F40D11AF0800F59D109F1010940
:101DB0004FEA5808B8F1000F3FF4F0AE18F0010FE9
:101DC000F4D05FFA89FB5946206800F0E0FE8246B5
:101DD00010F0010FCCD009F00F02012101FA02F23C
:101DE0007B6B23EA02037B6305EB4913C3F80819F5
:101DF000A3798B42B8D109EBC90304EB83031A6AB8
:101E0000D9690A441A62B9F1000FADD109EBC903CF
:101E100004EB83035B6A002BA6D104F29C420121F0
:101E2000206800F009FF9FE74946284600F066FA5F
:101E300009EBC90304EB8303DB7D012B05D005EB24
:101E400049130222C3F80829ADE709EBC90304EBE3
:101E500083030022DA7559462046FEF72FFFEEE78E
:101E600049462046FFF71CFBA0E77B6823F00103EF
:101E70007B6094F8CC34012B08D02046FEF712FF8B
:101E80002268536903F0004353618DE6002184F812
:101E9000CC14204600F03EF9F2E72046FEF7EAFEB9
:101EA0008DE67B6823F001037B601021206800F041
:101EB00025FA1AE005EB46134FF67F31C3F80819EF
:101EC000D3F8002922F40012C3F80029C3F8081B34
:101ED000D3F8002B22F40012C3F8002BD3F8002B08
:101EE00042F00062C3F8002B01362379B342E1D8F7
:101EF000FB6943F00113FB61E37BDBB1D7F884306E
:101F000043F00B03C7F884307B6C43F00B037B6416
:101F1000D5F8003823F4FE63C5F8003804F29C427B
:101F2000A179206800F088FE2268536903F4805389
:101F3000536150E67B6943F4005343F02B037B610C
:101F40003B6943F00B033B61E2E7206800F066FE6B
:101F5000206800F0EFFAE071266801F09DF9014673
:101F6000E279304600F04CF92046FEF770FE226818
:101F7000536903F40053536134E62046FEF761FED3
:101F80002268536903F00803536132E6013623796E
:101F9000B3420CD906EBC60304EB830393F8573224
:101FA000012BF3D1F1B22046FFF791FDEEE7206857
:101FB00000F0D0FD10F4801F25D1206800F0CAFD8C
:101FC00010F4001F58D0012326E001362379B342D4
:101FD0001BD905EB4613D3F8002906EBC60304EB27
:101FE00083031B7E012BF0D1002AEEDA06EBC60339
:101FF00004EB83030122DA7566F07F01C9B2204643
:10200000FFF765FDE1E70126E0E72268536903F485
:1020100080135361D1E7013322799A4227D905EB26
:102020004312D2F8001B03EBC30204EB820292F8C6
:102030005822012AEFD10029EDDAD4F8D42482EA1B
:10204000114212F0010FE6D103EBC30204EB82024E
:10205000012182F85712AA6942F08002AA616A69D6
:1020600012F0800FD7D17B6843F400737B60226845
:10207000536903F400135361206800F06BFD10F006
:10208000804F10D1206800F065FD10F0040F3FF480
:1020900041AD23685D6815F0040F0DD122685368C7
:1020A0002B43536036E52046FEF70EFE2268536947
:1020B00003F080435361E5E72046FEF70BFEEDE7B2
:1020C00010B40468606A31B940EA0240A06200209E
:1020D0005DF8044B70478C46A36A00EB1340002365
:1020E00008E003F1400104EB8101496800EB114075
:1020F0000133DBB20CF1FF318B42F2D340EA0240F4
:102100000CF13F0104EB81046060E0E70368596271
:1021100000207047704782B000230193019B013378
:102120000193019BB3F1706F1CD80369002BF5DAA2
:102130000A23019302E0019B013B0193019B002BC9
:10214000F9D1036943F001030361019B013301935A
:10215000019BB3F1706F08D8036913F0010FF4D13C
:10216000002000E0032002B070470320FBE784B0AA
:1021700010B5044603A880E80E009DF81130012B2D
:1021800021D1A36B23F48033A363E36823F4840396
:1021900023F04003E360E36823F44013E3609DF819
:1021A0001830012B0AD02046FFF7B5FF9DF80E30FE
:1021B000012B1CD0BDE8104004B07047E36843F425
:1021C0008013E360EFE7E36843F04003E3602046F9
:1021D000FFF7A1FF9DF8153023B9A36B43F48033BB
:1021E000A363E3E7A36B23F48033A363DEE7A36871
:1021F00043F00603A360A36843F02003A360D9E77C
:10220000022A0AD00922C36823F47053C360C3684A
:1022100043EA8223C36000207047234B0B44234AC8
:1022200093422FD9224B0B44224A93422CD9A1F539
:102230007403A3F51053204A934227D9A1F1837365
:10224000A3F5E7431D4A934222D31D4B0B441D4A7D
:1022500093421FD91C4B0B441C4A93421CD31C4B6A
:102260000B441C4A934219D3A1F1B773A3F55853F9
:10227000194A934214D3194B0B44194A934211D271
:102280000722C0E70F22BEE70E22BCE70D22BAE705
:102290000C22B8E70B22B6E70A22B4E70922B2E71C
:1022A0000822B0E70622AEE7405327FFFF340C00B8
:1022B000401E1BFF3F420F007F4F120020D613002D
:1022C00060B6E5FE5FE3160000D3CEFE40771B004C
:1022D000C05BB3FEC091210020753800E05459FE68
:1022E000E09C4100836843F0010383600020704755
:1022F000836823F0010383600020704782B00023CD
:102300000193019B01330193019BB3F1706F15D8C9
:102310000369002BF5DA00230193890141F02001C4
:102320000161019B01330193019BB3F1706F08D8E8
:10233000036913F0200FF4D1002000E0032002B065
:1023400070470320FBE782B000230193019B013318
:102350000193019BB3F1706F13D80369002BF5DA79
:102360000023019310230361019B01330193019B1F
:10237000B3F1706F08D8036913F0100FF4D1002087
:1023800000E0032002B070470320FBE7D0F80038DC
:102390001943C0F8001800207047000084B0F8B559
:1023A000044607A880E80E00002306E003F140027F
:1023B00004EB82020021516001330E2BF6D99DF807
:1023C000266006BBD4F8043843F00203C4F804388E
:1023D000A36B43F40013A363A36B23F40023A36351
:1023E000A36B23F48023A3630023C4F8003E9DF86D
:1023F0002130012B15D19DF81F306BB900212046EB
:10240000FFF7C4FF11E0A36B23F40013A363A36BD6
:1024100043F40023A363E7E701212046FFF7B6FF5B
:1024200003E003212046FFF7B1FF10212046FFF70C
:1024300065FF054600B101252046FFF784FF00B186
:10244000012504F5006C0023CCF81030CCF81430D2
:10245000CCF81C300DE04FF09040C2F8000902E0CB
:102460000020C2F8000900220A614FF67F328A601C
:1024700001339DF81C1099420ED904EB431202F56A
:102480001061D2F800090028EADA002BE3D14FF0FE
:102490000060C2F80009E6E700230AE0BBB14FF094
:1024A0009047C2F8007B002202614FF67F328260C3
:1024B0000133994210D904EB431202F53060D2F88F
:1024C000007B002FEADB0027C2F8007BEBE74FF030
:1024D0000067C2F8007BE6E7DCF8103023F4807375
:1024E000CCF810300023A3616FF0804363619DF846
:1024F0001E301BB9A36943F01003A361A2690C4B02
:102500001343A3619DF822301BB1A36943F0080374
:10251000A361012E04D02846BDE8F84004B07047FE
:10252000A36943F0804343F00403A361F3E700BFD2
:1025300000383C80D0F8083803F00603022B04D0A2
:10254000062B04D02BB900207047022070470220D0
:1025500070470F20704710B591F800C04B78012BE1
:1025600023D000F5006ED0F81C380CF00F040122C7
:10257000A24043EA0243C0F81C3800EB4C10D0F8EC
:10258000003B13F4004F0ED1D0F8003B8A68C2F331
:102590000A02097942EA8142134343F0805343F42B
:1025A0000043C0F8003B002010BDD0F81C280CF000
:1025B0000F0E03FA0EF39BB21343C0F81C3800EB66
:1025C0004C10D0F8003913F4004FECD1D0F800399A
:1025D0008A68C2F30A02097942EA814242EA8C52CD
:1025E000134343F0805343F40043C0F80039DAE763
:1025F00030B40B784A78012A26D000EB4313D3F885
:10260000002B002A52DBD0F83C480A7802F00F0277
:102610004FF0010C0CFA02F224EA0242C0F83C2806
:10262000D0F81C28097801F00F010CFA01FC22EA0D
:102630000C42C0F81C28D3F8001B234A0A40C3F8F8
:10264000002B002030BC704700EB4313D3F8002967
:10265000002A1EDBD0F83C580A7802F00F02012451
:1026600004FA02F292B225EA0202C0F83C28D0F83D
:102670001C28097801F00F018C40A4B222EA040260
:10268000C0F81C28D3F80019104A0A40C3F80029E2
:10269000D7E7D3F8002942F00062C3F80029D3F845
:1026A000002942F08042C3F80029D3E7D3F8002B79
:1026B00042F00062C3F8002BD3F8002B42F08042B6
:1026C000C3F8002B9FE700BF0078F3EF007833ECEE
:1026D00010B483B0024600230193487801280BD040
:1026E0000B7802EB4313D3F8000B00282DDB0020FE
:1026F00003B05DF8044B70470B7802EB4313D3F83B
:102700000049002C01DB0020F2E7D3F8004944F037
:102710000064C3F800490B7802EB4313D3F8004977
:1027200044F08044C3F80049019B01330193019CAC
:1027300042F210739C42DBD80B7802EB4313D3F8C0
:102740000039002BF0DB0020D2E7D3F8000B40F07B
:102750000060C3F8000B0B7802EB4313D3F8000BB7
:1027600040F08040C3F8000B019B013301930198B6
:1027700042F21073984208D80B7802EB4313D3F857
:10278000003B002BF0DB0020B2E70120B0E710B5E2
:102790009DF8084084B903334FEA930E4FF0000CC4
:1027A00008E000EB023303F5805351F8044B1C6042
:1027B0000CF1010CF445F4D3002010BDF0B583B04A
:1027C0000C784B78012B2DD000EB441C0CF53063BA
:1027D0001D696FF312051D611D696FF3DC451D61F5
:1027E000002C40F0CE800C690CB18C680C618C68B8
:1027F0000C621D69C4F312042C431C611C6944F46F
:1028000000241C61012A00F0DF800B79012B00F00D
:10281000E180DCF8003B43F00443CCF8003B0020AF
:1028200003B0F0BD0B6973BB00EB4413D3F8105930
:102830006FF3DC45C3F81059D3F8105945F400255F
:10284000C3F81059D3F810596FF31205C3F8105993
:10285000012A54D000EB4414D4F8003943F0044367
:10286000C4F800390B79012B72D00B69002BD6D03C
:10287000D0F83438097801F00F0101228A4013435F
:10288000C0F83438CBE700EB441303F510631D693F
:102890006FF312051D611D696FF3DC451D6184B97D
:1028A0000E698D68AE4200D90D611D6945F40025A1
:1028B0001D611D690E69C6F3120C45EA0C051D6108
:1028C000C6E70D698E683544013DB5FBF6F51E6916
:1028D0001FFA85FC494F07EAC54535431D610D794F
:1028E000012DE6D11D6925F0C0451D611D694FEA26
:1028F0004C7C0CF0C04C45EA0C051D61D9E7CB6956
:102900001BB100EB4412C2F814390B79012B08D02B
:1029100000EB4414D4F8003943F00443C4F8003900
:102920007DE7D0F8083813F4807F08D100EB44121B
:10293000D2F8003943F00053C2F80039E8E700EB61
:102940004412D2F8003943F08053C2F80039DFE76F
:10295000D0F8083813F4807F0CD1D4F8003943F054
:102960000053C4F8003900920B8A0A78C968FFF74F
:102970000EFF54E7D4F8003943F08053C4F800390F
:10298000F1E70C6954B91C698D68C5F312052C4335
:102990001C611C6944F400241C6133E78D682C44DD
:1029A000013CB4FBF5F4A4B204FB05F50D621D690E
:1029B000124E06EAC4442C431C611C690D6AC5F31F
:1029C00012052C431C611DE7CA68002A3FF41DAFA5
:1029D0005A611AE7D0F8083813F4807F06D1DCF882
:1029E000003B43F00053CCF8003B12E7DCF8003B1F
:1029F00043F08053CCF8003B0BE700BF0000F81F0A
:102A000010B5844608464FEA920E02F003020023F6
:102A100005E00CF58051096840F8041B013373454B
:102A2000F7D37AB10CF5805CDCF800400021CBB222
:102A3000DB0024FA03F300F8013B0131013A92B2C2
:102A4000002AF4D110BD0B784A78012A14D000EB8B
:102A50004310D0F8002B002A06DB2BB1D0F8003B46
:102A600023F08043C0F8003BD0F8003B43F4001350
:102A7000C0F8003B0020704700EB4310D0F800295D
:102A8000002A06DB2BB1D0F8003923F08043C0F8D0
:102A90000039D0F8003943F40013C0F80039E9E7F1
:102AA0000B784A78012A0ED000EB4310D0F8003B97
:102AB00023F40013C0F8003B0B79023BDBB2012B7F
:102AC00015D90020704700EB4310D0F8003923F4EB
:102AD0000013C0F800390B79023BDBB2012BF0D8B0
:102AE000D0F8003943F08053C0F80039E9E7D0F856
:102AF000003B43F08053C0F8003BE2E7D0F80038D9
:102B000023F4FE63C0F80038D0F80038090101F45E
:102B1000FE610B43C0F8003800207047D0F8003E3B
:102B200023F00303C0F8003ED0F8043823F002037A
:102B3000C0F8043800207047D0F8003E23F00303AB
:102B4000C0F8003ED0F8043843F00203C0F804385F
:102B5000002070474269806910407047D0F81838EB
:102B600000F50060C0691840000C7047D0F81838B4
:102B700000F50060C069184080B2704700EB411159
:102B8000D1F8082B00F50060406910407047D0F87C
:102B90001028D0F8343801F00F0C23FA0CF3DB01C5
:102BA000DBB2134300EB411000F510608068184061
:102BB0007047406900F00100704738B50546C368AA
:102BC00023F0C043C360012913D019BBC36843F08D
:102BD0008043C36000240A2000F01CFD0A3428460C
:102BE000FFF7E7FF08B1C72CF5D9C82C14D0002097
:102BF00038BDC36843F00053C36000240A2000F0CE
:102C000009FD0A342846FFF7D4FF0128EDD0C72C70
:102C1000F4D9EAE70120EBE70120E9E7D0F8003931
:102C20006FF30A03C0F80039D0F8043843F4807316
:102C3000C0F804380020704710B4046C154B9C4257
:102C400003D9D0F8003B002B16DB0024C0F8104B52
:102C5000D0F8104B44F40024C0F8104BD0F8104BBF
:102C600044F01804C0F8104BD0F8104B44F0C044A6
:102C7000C0F8104B012903D000205DF8044B7047C9
:102C8000C0F8142BD0F8003B43F08023C0F8003B81
:102C9000F2E700BF0A30544F002800F0E08170B521
:102CA00082B00446036813F0010F3BD09F4B9B6832
:102CB00003F00C03042B2CD09C4B9B6803F00C03FB
:102CC000082B21D06368B3F5803F4FD0B3F5A02F18
:102CD00052D0964B1A6822F480321A601A6822F495
:102CE00080221A606368002B50D000F08DFC0546EE
:102CF0008E4B1B6813F4003F14D100F085FC401B81
:102D00006428F5D90320B1E1884B5B6813F4800F88
:102D1000D8D0864B1B6813F4003F03D06368002BA8
:102D200000F09F81236813F0020F54D07F4B9B6803
:102D300013F00C0F3ED07D4B9B6803F00C03082B67
:102D400033D0E368002B68D0794B01221A6000F081
:102D50005BFC0546754B1B6813F0020F54D100F065
:102D600053FC401B0228F5D903207FE16F4A13680A
:102D700043F480331360B5E76C4B1A6842F4802249
:102D80001A601A6842F480321A60ABE700F03CFC2B
:102D90000546664B1B6813F4003FC3D000F034FCBB
:102DA000401B6428F5D9032060E1604B5B6813F495
:102DB000800FC6D15D4B1B6813F0020F03D0E36890
:102DC000012B40F05081594A136823F0F803216920
:102DD00043EAC1031360236813F0080F42D063690C
:102DE0006BB3534B0122C3F8802E00F00DFC054657
:102DF0004E4B5B6F13F0020F34D100F005FC401B0B
:102E00000228F5D9032031E1484A136823F0F8037A
:102E1000216943EAC1031360DDE7454B00221A60D4
:102E200000F0F2FB0546414B1B6813F0020FD2D0B5
:102E300000F0EAFB401B0228F5D9032016E13C4BC9
:102E40000022C3F8802E00F0DFFB0546374B5B6F96
:102E500013F0020F06D000F0D7FB401B0228F5D973
:102E6000032003E1236813F0040F77D02F4B1B6C72
:102E700013F0805F33D1002301932C4B1A6C42F086
:102E800080521A641B6C03F080530193019B01254F
:102E9000284B1B6813F4807F23D0A368012B34D008
:102EA000052B38D0214B1A6F22F001021A671A6FD6
:102EB00022F004021A67A368002B3DD000F0A4FBA7
:102EC00006461A4B1B6F13F0020F46D100F09CFB15
:102ED000801B41F288339842F3D90320C6E00025D5
:102EE000D6E7144A136843F48073136000F08CFB38
:102EF0000646104B1B6813F4807FCED100F084FB94
:102F0000801B0228F5D90320B0E0084A136F43F074
:102F100001031367CFE7054B1A6F42F004021A67EB
:102F20001A6F42F001021A67C5E700BF003802407D
:102F3000000047420070004000F066FB0646524B1E
:102F40001B6F13F0020F08D000F05EFB801B41F2F4
:102F500088339842F3D9032088E0EDB9A369002BA8
:102F600000F08380484A926802F00C02082A51D08F
:102F7000022B17D0454B00221A6600F045FB044691
:102F8000414B1B6813F0007F42D000F03DFB001B5B
:102F90000228F5D9032069E03B4A136C23F08053E3
:102FA0001364DBE7394B00221A6600F02DFB05465F
:102FB000354B1B6813F0007F06D000F025FB401B4B
:102FC0000228F5D9032051E0E369226A1343626ABB
:102FD00043EA8213A26A5208013A43EA0243E26AD0
:102FE00043EA0263284A5360284B01221A6600F024
:102FF0000BFB0446244B1B6813F0007F06D100F046
:1030000003FB001B0228F5D903202FE000202DE050
:1030100000202BE0012B2BD01B4B5B6803F48001BD
:10302000E269914226D103F03F02216A8A4223D10C
:10303000616A47F6C0721A40B2EB811F1ED103F4D9
:103040004031A26A5208013AB1EB024F18D103F0A5
:103050007063E26AB3EB026F14D1002006E0012036
:103060007047012002E0012000E0002002B070BDA6
:103070000120FBE70120F9E70120F7E70120F5E750
:103080000120F3E70120F1E7003802400000474249
:1030900008B5264B9B6803F00C03042B41D0082B8A
:1030A00041D1224B5A6802F03F025B6813F4800F53
:1030B00012D01E4B5968C1F388111D480023A1FB93
:1030C0000001FDF7C5F8194B5B68C3F301430133F9
:1030D0005B00B0FBF3F008BD144B5868C0F38810D8
:1030E0004FEA401CBCEB000C6EEB0E0E4FEA8E1349
:1030F00043EA9C634FEA8C11B1EB0C0163EB0E03C6
:10310000DB0043EA5173C90011EB000C43F10003EB
:10311000990200234FEA8C2041EA9C51FDF798F870
:10312000D1E70348D7E70348D5E700BF003802409E
:1031300040787D010024F400002800F09B8070B5E9
:103140000D4604464F4B1B6803F007038B4208D221
:10315000CBB24C4A1370136803F007038B4240F064
:103160008B80236813F0020F17D013F0040F04D0E4
:10317000454A936843F4E0539360236813F0080FC3
:1031800004D0414A936843F4604393603E4A936895
:1031900023F0F003A1680B439360236813F0010F41
:1031A00032D06368012B21D09A1E012A25D9364AD4
:1031B000126812F0020F61D033498A6822F00302CC
:1031C00013438B6000F020FA06462F4B9B6803F0F8
:1031D0000C036268B3EB820F16D000F015FA801B67
:1031E00041F288339842F0D9032042E0264A12681F
:1031F00012F4003FE0D101203BE0234A126812F0B4
:10320000007FD9D1012034E01E4B1B6803F0070377
:10321000AB4207D9EAB21B4B1A701B6803F00703D5
:10322000AB422DD1236813F0040F06D0164A9368E1
:1032300023F4E053E1680B439360236813F0080F15
:1032400007D0114A936823F46043216943EAC1031C
:103250009360FFF71DFF0C4B9B68C3F303130B4AEE
:10326000D35CD8400A4B18600A4B186800F080F90C
:10327000002070BD012070470120FAE70120F8E727
:103280000120F6E7003C0240003802400C5A0008DA
:103290007400002070000020014B1868704700BFC8
:1032A0007400002000230F2B00F2D78070B582B08D
:1032B00065E085684FEA430E032404FA0EF425EA1C
:1032C0000405CC6804FA0EF42C438460446824EAB4
:1032D00002044A68C2F300129A40224342605CE052
:1032E000DC08083450F8242003F00705AD004FF047
:1032F0000F0E0EFA05FE22EA0E0E0A69AA4042EAF5
:103300000E0240F824205CE0042200E0002202FAD1
:103310000EF22A430234514D45F82420504A946855
:103320006FEA0C0224EA0C054E6816F4801F01D0E7
:103330004CEA04054A4CA560E46802EA04054E68BC
:1033400016F4001F01D04CEA0405454CE5606468A2
:1033500002EA04054E6816F4003F01D04CEA040569
:103360003F4C6560246822404D6815F4803F01D0D1
:103370004CEA04023A4C226001330F2B6BD8012235
:103380009A400C6804EA020C32EA0404F4D14C6856
:1033900004F00304013C012C8BD94A6802F00302BB
:1033A000032A09D0C4685D000322AA4024EA02046B
:1033B0008A68AA402243C2604A6802F00302022AD5
:1033C0008ED004684FEA430E032202FA0EF224EA7A
:1033D00002044A6802F0030202FA0EF2224302607B
:1033E0004A6812F4403FC7D0002201921D4A546C33
:1033F00044F480445464526C02F480420192019A75
:103400009C08A51C154A52F8255003F0030E4FEAFC
:103410008E0E0F2202FA0EF225EA0205124A90429F
:103420003FF474AF02F5806290420ED002F58062E4
:1034300090420CD002F5806290420AD002F5806280
:1034400090423FF461AF072261E701225FE7022269
:103450005DE703225BE702B070BD704700380140B2
:10346000003C014000380240000002400AB1816186
:103470007047090481617047002807DB00F01F02D4
:10348000400901239340024A42F82030704700BFB0
:1034900000E100E0002808DB0901C9B200F160404A
:1034A00000F5614080F80013704700F00F0009013B
:1034B000C9B2014B1954704714ED00E000B500F09B
:1034C0000700C0F1070CBCF1040F28BF4FF0040C3B
:1034D000031D062B0FD9C31E4FF0FF3E0EFA0CF052
:1034E00021EA000199400EFA03FE22EA0E0241EAA7
:1034F00002005DF804FB0023EEE70000074AD368F2
:1035000023F4E0631B041B0C000200F4E06003439F
:1035100043F0BF6343F40033D360704700ED00E035
:1035200010B50446054BD868C0F30220FFF7C6FF6C
:1035300001462046FFF7AEFF10BD00BF00ED00E0E2
:1035400008B5FFF799FF08BD0138B0F1807F0BD2B5
:103550004FF0E0235861054AF02182F82310002043
:10356000986107221A6170470120704700ED00E062
:1035700010B504460E4B1A784FF47A73B3FBF2F38E
:103580000C4A1068B0FBF3F0FFF7DEFF68B90F2CB0
:1035900001D901200AE0002221464FF0FF30FFF759
:1035A000BFFF054B1C60002000E0012010BD00BFE4
:1035B0006C000020740000207000002008B50B4B48
:1035C0001A6842F400721A601A6842F480621A6043
:1035D0001A6842F480721A600320FFF78FFF0F20F1
:1035E000FFF7C6FFFDF702F9002008BD003C0240CE
:1035F000034A1168034B1B780B441360704700BFEC
:10360000E41F00206C000020014B1868704700BFC9
:10361000E41F002038B50446FFF7F6FF0546B4F175
:10362000FF3F02D0044B1B781C44FFF7EDFF401B0B
:10363000A042FAD338BD00BF6C0000204A4B5A6844
:1036400022F440325A605A6841680A435A6002685C
:10365000536823F48073536002685368016943EA36
:10366000012353600268536823F04073536002687B
:10367000536881680B4353600268936823F40063C6
:10368000936002689368C1680B439360826A374B0A
:103690009A4257D00268936823F07063936002687F
:1036A0009368816A0B4393600268936823F04053E8
:1036B000936002689368C16A0B43936002689368E1
:1036C00023F00203936002689368017E43EA41039A
:1036D000936090F82030002B3FD00268536843F489
:1036E000006353600268536823F4604353600168C9
:1036F0004B68426A013A43EA42334B600268D36A3C
:1037000023F47003D3620168CB6AC269013A43EAC9
:103710000253CB620268936823F4007393600268DB
:10372000936890F8301043EA4123936002689368ED
:1037300023F48063936002689368416943EA8123BC
:10374000936070470268936823F070639360026827
:10375000936823F040539360B0E70268536823F402
:1037600000635360CAE700BF002301400100000F5F
:1037700038B310B50446036C43B1236C13F0100F3B
:103780000BD00120002384F83C3010BDFDF74AF82F
:103790000023636484F83C30EFE7236C23F4885300
:1037A00023F0020343F0020323642046FFF746FFA1
:1037B00000206064236C23F0030343F001032364BF
:1037C000E0E701207047000082B00023019390F8E9
:1037D0003C30012B6ED0012380F83C3003689A689E
:1037E00012F0010F13D19A6842F001029A60344B33
:1037F0001B68344AA2FB03239B0C03EB4303019396
:1038000002E0019B013B0193019B002BF9D102686F
:10381000936813F0010F42D0036C23F4E06323F0AC
:10382000010343F480730364536813F4806F05D07D
:10383000036C23F4405343F480530364036C13F488
:10384000805F19D0436C23F006034364002380F8A3
:103850003C306FF0220313601B4B5B6813F01F0FAB
:103860000DD103689A6812F0405F25D19A6842F042
:1038700080429A6000201BE000234364E6E703686F
:10388000124A934201D0002012E09A6812F0405F81
:1038900014D19A6842F080429A60002008E0036CDC
:1038A00043F010030364436C43F0010343640020BE
:1038B00002B070470220FBE70020F9E70020F7E79D
:1038C0007400002083DE1B430023014000200140E0
:1038D00090F83C30012B19D0012380F83C3002686D
:1038E000936823F00103936003689B6813F0010F52
:1038F00007D1036C23F4885323F0010343F0010341
:103900000364002380F83C3018467047022070475B
:1039100070B504460D4603689A6812F4806F03D0B0
:103920009B6813F4807F19D1FFF76EFE064623686B
:103930001A6812F0020F20D1B5F1FF3FF7D0B5B9E8
:1039400023681B6813F0020FF1D1236C43F00403CA
:103950002364002384F83C30032032E0036C43F0FE
:1039600020030364002380F83C30012029E0FFF7A6
:103970004BFE801BA842DAD9E2E76FF012021A6010
:10398000236C43F40073236423689A6812F0405F49
:1039900016D1207EB0B9DA6A12F4700F03D09B689A
:1039A00013F4806F0DD1236C23F480732364236C94
:1039B00013F4805F05D1236C43F00103236400E01E
:1039C000002070BD0020FCE70368D86C7047000041
:1039D00030B482B00022019290F83C20012A00F01D
:1039E000C0800346012280F83C200A68092A40D999
:1039F0000468E06892B202EB42021E3A4FF0070CF4
:103A00000CFA02F220EA0202E2601C68E0680A880E
:103A100002EB42021E3A8D6805FA02F20243E260AE
:103A20004A68062A3CD81C68606B02EB8202053AA1
:103A30004FF01F0C0CFA02F220EA020262631C68CB
:103A4000606B4A6802EB8202053AB1F800C00CFADA
:103A500002F2024362631868434A904250D01868E9
:103A6000414A904259D0002083F83C0002B030BC5B
:103A700070470468206992B202EB42024FF0070CD3
:103A80000CFA02F220EA020222611C6820690A880C
:103A900002EB42028D6805FA02F202432261BFE79F
:103AA0000C2A16D81D68286B02EB8202233A1F24C9
:103AB00004FA02F220EA02022A631D68286B4A68AF
:103AC00002EB8202233A0C8804FA02F202432A63D0
:103AD000C1E71D68E86A02EB8202413A1F2404FA3A
:103AE00002F220EA0202EA621D68E86A4A6802EB12
:103AF0008202413A0C8804FA02F20243EA62AAE71F
:103B00000A68122AABD1194A506820F400005060AC
:103B1000506840F480005060A1E70A68144882426F
:103B200001D0112A9FD1114A506820F480005060C2
:103B3000506840F40000506009680D4A914292D1EB
:103B40000C4A12680C49A1FB0212920C02EB820291
:103B500052000192019A002A85D0019A013A0192FD
:103B6000F8E7022082E700BF002001400023014067
:103B7000120000107400002083DE1B43034AD2F8B9
:103B8000883043F47003C2F88830704700ED00E0DD
:103B900098B108B503460020C3F8B802C3F8C402C0
:103BA000C3F8D00209B1C3F8B412012183F89C1202
:103BB0001A701846FDF794F808BD0320704710B539
:103BC00082B00023ADF80630B9B10446C0F8B8128F
:103BD000D0F8D422CB6A43B1AE3250F82230DB6A3F
:103BE0000DF106009847C4F8D002D4F8D83201335A
:103BF000C4F8D832002002B010BD0320FBE708B59E
:103C0000FDF7CDF808BD08B5D0F8B83213B11B6880
:103C1000984708BD0020FCE708B5D0F8B8325B68CB
:103C2000984700B908BD0320FCE738B5044600F208
:103C3000AA25284600F0C4F90123C4F89432B4F848
:103C4000B032C4F8983294F8AA1201F01F03012B85
:103C500007D0022B0AD073B92946204600F084FB16
:103C600038BD2946204600F0BAFBF9E72946204630
:103C700000F0F7FBF4E701F080012046FDF7AAF819
:103C8000EEE7F8B50446012380F89C320023C0F823
:103C900094324360C0F8A43280F8A032D0F8B83231
:103CA000E3B15B68E3B1002198470746D0B94023F0
:103CB000002211462046FDF77AF8012684F8636158
:103CC0004025A4F860512B46002280212046FDF7B4
:103CD0006EF884F8236025843846F8BD0027E6E7AF
:103CE0000027E4E70327E2E701740020704790F81B
:103CF0009C32042B04D090F89C32DBB280F89D32C9
:103D0000042380F89C320020704790F89C32042BEA
:103D100001D00020704790F89D32DBB280F89C32D1
:103D2000F7E708B590F89C32032B01D0002008BDBE
:103D3000D0F8B832002BF9D0DB69002BF6D09847C9
:103D4000F4E708B5D0F8D432AE3350F8233053B18D
:103D500090F89C22032A01D0002008BD1B6A23B1E1
:103D600098470020F9E70320F7E70020F5E708B5BA
:103D7000D0F8D432AE3350F8233053B190F89C22AF
:103D8000032A01D0002008BD5B6A23B198470020B8
:103D9000F9E70320F7E70020F5E70020704708B5B2
:103DA000012380F89C32D0F8B83223B15B680179E6
:103DB000984710B908BD0020FCE70320FAE700206F
:103DC00070470020704738B504460D46002944D19D
:103DD000D0F89432032B01D0084638BDD0F85831C2
:103DE000B0F86021934209D890F8AA3203F01F037B
:103DF000012B12D0022B1ED0084613E09B1AC0F8EC
:103E00005831D0F864111144C0F864119A4238BF97
:103E10001A4600F08DFC2846DFE790F8AE12FFF757
:103E2000CEFF18B994F89C32032B09D0204600F03D
:103E300087FC2846D1E790F8AE12FFF7C2FFF0E703
:103E400000F1AE0354F823301A69002AEED0C4F80A
:103E5000D4021B6920469847E8E701F07F01FFF78D
:103E6000B0FF88B994F89C32032BB6D100F1AE03B1
:103E700054F823309A69002AAFD0C4F8D4029B6961
:103E8000294620469847A8E70020A6E738B504460B
:103E90000D4600294BD1D0F89432022B07D094F86C
:103EA000A00218B1002384F8A032284638BD8269E8
:103EB000038C9A420DD89A4219D094F89C32032B65
:103EC00029D080212046FCF785FF204600F043FCE6
:103ED000E5E7D21A8261416A1944416200F00FFCA1
:103EE00000231A4619462046FCF794FFD7E742699B
:103EF0009342E2D8D0F898329A42DED2002211469C
:103F000000F0FDFB0021C4F898120B460A4620463B
:103F1000FCF780FFC3E7D4F8B832DA68002AD0D0C3
:103F20000022C4F8D422DB6820469847C9E741F054
:103F30008001FFF746FF88B994F89C32032BB5D176
:103F400000F1AE0354F823305A69002AAED0C4F809
:103F5000D4025B69294620469847A7E70020A5E7D9
:103F60000B88027813440B8003781844704742880A
:103F700003789A4218D930B583B004460D46ADF89F
:103F800006306388BDF806209A420AD20DF1060178
:103F9000FFF7E6FF4378052BF3D18378AB42F0D1EE
:103FA00000E0002003B030BD002070470346002031
:103FB00002E00130C0B201331A78002AF9D170470B
:103FC0000B7803704B7843708B78CA7843EA0223EE
:103FD00043800B794A7943EA022383808B79CA793B
:103FE00043EA0223C380704710B504468021FCF7E2
:103FF000F1FE00212046FCF7EDFE10BD30B583B088
:1040000004460D460023ADF806304A88130A013BEA
:10401000062B00F2AA80DFE803F0041E32A8A88C69
:104020009900D0F8B4321B680DF10601007C984766
:10403000EA88002A00F0A380BDF80630002B00F0CB
:1040400099809A4228BF1A46ADF8062001462046BC
:1040500000F047FB8CE0037C43B9D0F8B8329B6A90
:104060000DF10600984702234370E1E7D0F8B8321B
:10407000DB6A0DF10600984702234370D8E7D2B2FD
:10408000052A52D8DFE802F003101D2A3744D0F881
:10409000B4325B6823B10DF10601007C9847C7E795
:1040A0002946FFF7A1FF63E0D0F8B4329B6823B143
:1040B0000DF10601007C9847BAE72946FFF794FF07
:1040C00056E0D0F8B432DB6823B10DF10601007C74
:1040D0009847ADE72946FFF787FF49E0D0F8B432AB
:1040E0001B6923B10DF10601007C9847A0E7294622
:1040F000FFF77AFF3CE0D0F8B4325B6923B10DF1F1
:104100000601007C984793E72946FFF76DFF2FE0F3
:10411000D0F8B4329B6923B10DF10601007C9847B9
:1041200086E72946FFF760FF22E02946FFF75CFF9C
:104130001EE0037C33B9D0F8B8325B6B0DF106009A
:10414000984775E72946FFF74FFF11E0037C43B915
:10415000D0F8B8321B6B0DF1060098470723437067
:1041600066E72946FFF740FF02E02946FFF73CFFDC
:1041700003B030BD29462046FFF736FFF8E720465A
:1041800000F0DEFAF4E738B504468B88F3B9CB8843
:10419000E3B94B887F2B19D803F07F0590F89C3248
:1041A000032B0CD080F89E522946FCF723FE2046B4
:1041B00000F0C6FA35B1022384F89C3209E0FFF71B
:1041C00013FF06E0012384F89C3202E02046FFF74B
:1041D0000BFF38BD70B504460E468D782F4B1D7011
:1041E000012D10D890F89C32DAB2022B0FD0032A9E
:1041F00026D0FFF7F9FE294B19782046FFF70CFD72
:104200000325284670BDFFF7EFFE0325F9E7A5B1AA
:1042100045602946FFF7F7FC054638B13146204690
:10422000FFF7E2FE022384F89C32EAE7204600F022
:1042300087FA032384F89C32E3E700F081FAE0E791
:10424000CDB141688D4225D0C9B2FFF7E5FC134BD3
:10425000197861602046FFF7D6FC0546B0B13146BB
:104260002046FFF7C1FE21792046FFF7D5FC022347
:1042700084F89C32C5E7022380F89C3245602946C9
:10428000FFF7CAFC204600F05BFABAE7204600F0D0
:1042900057FAB6E700F054FA0025B2E7E81F00200D
:1042A00008B5CB88012B0BD190F89C32DAB2022BE7
:1042B00009D9032A11D10122011D00F012FA01E0EF
:1042C000FFF792FE08BD52B23AB10146002341F811
:1042D000083F012200F005FAF4E7FFF785FEF1E759
:1042E00008B590F89C32013B022B12D8CB88022BE8
:1042F0000CD10123C360D0F8A4320BB10323C360F7
:10430000022200F10C0100F0ECF908BDFFF76CFE91
:10431000FBE7FFF769FEF8E708B54B88012B04D0EF
:10432000022B07D0FFF760FE08BDC0F8A43200F0F2
:1043300007FAF9E78B881B0A80F8A03200F000FA30
:10434000F2E708B590F89C32013B022B09D84B8864
:10435000012B00D008BD0023C0F8A43200F0F0F912
:10436000F8E7FFF741FEF5E738B50C7804F0600494
:10437000202C06D0402C04D06CB1FFF735FE002471
:1043800007E0D0F8D432AE3350F823309B6898471A
:104390000446204638BD4D78092D1DD8DFE805F0CC
:1043A00012191C161C08051C0F0BFFF727FEF0E75F
:1043B000FFF7E9FEEDE7FFF70DFF0446E9E7FFF73A
:1043C0006FFFE6E7FFF78CFF2C46E2E7FFF7A4FF5D
:1043D000DFE7FFF7B6FFDCE7FFF706FED9E770B5CA
:1043E00005460C460B7803F06003202B07D0402BCA
:1043F00005D023B1FFF7F8FD0026304670BD95F8D3
:104400009C32013B022B26D82179012905D921466E
:104410002846FFF7E9FD0026EFE72846FFF7CFFC27
:1044200068B900F1AE0255F82220916889B1C5F84B
:10443000D4029368214628469847064600E00326A2
:10444000E388002BD9D1002ED7D1284600F078F987
:10445000D3E70326F4E721462846FFF7C5FD0026EB
:10446000CBE72DE9F04106460D468B88DFB20C788C
:1044700004F06004202C08D0402C06D0DCB1FFF7FB
:10448000B3FD00242046BDE8F08139463046FFF7F1
:1044900098FC0446002840F0FD80C6F8D40200F1E4
:1044A000AE0356F823309B68002BEBD029463046EC
:1044B00098470446E6E791F80180B8F1010F31D042
:1044C000B8F1030F05D0B8F1000F67D0FFF78CFDEE
:1044D000D8E790F89C32DAB2022B04D0032A12D02B
:1044E000FFF782FDCEE70FB1802F04D12946304679
:1044F000FFF77AFDC6E73946FCF76CFC80213046B1
:10450000FCF768FCBEE74B8823B91FB1802F01D0B0
:10451000CB881BB1304600F013F9B3E73946FCF7FE
:1045200059FCF7E790F89C32DAB2022B04D0032A48
:1045300012D0FFF759FDA5E70FB1802F04D129460E
:104540003046FFF751FD9DE73946FCF743FC8021DB
:104550003046FCF73FFC95E74B88002B92D117F0D3
:104560007F0F17D1304600F0EBF839463046FFF7A1
:1045700028FC002886D1C6F8D40200F1AE0256F815
:1045800022209268002A00F0878029463046904712
:10459000044677E73946FCF725FCE3E790F89C22D0
:1045A000D1B2022A06D003292AD02946FFF71CFDE2
:1045B000444667E70FB1802F14D113F0800F16D156
:1045C00007F07F0707EB8707B90001F5A8713144B1
:1045D0000431002301F80E3F0222304600F081F83A
:1045E00044464FE72946FFF7FFFC44464AE707F0F9
:1045F0007F0707EB8707B900103131440431E8E742
:104600005BB2002B20DB07F00F0202EB820200EB13
:10461000820292F863412CB3002B27DB07F07F0363
:1046200003EB83039C0004F5A874344404340FB1F5
:10463000802F24D10023A373022204F10E013046FF
:1046400000F04FF844461DE707F00F0202EB82022C
:1046500000EB820292F82340002CDDD12946FFF7BF
:10466000C3FC0FE72946FFF7BFFC0BE707F07F030A
:1046700003EB83039C00103434440434D7E73946F9
:104680003046FCF761FB10B10123A373D4E700238C
:10469000A373D1E70024F5E60446F3E600B370B552
:1046A0000D4616460446FFF781FC01304300B3F582
:1046B000007F06D89BB233802B7003236B700223DC
:1046C0000AE04FF40073F6E7EA5401345A1CD2B200
:1046D0000021A9540233DBB22278002AF4D170BD44
:1046E000704708B513460222C0F894224361416224
:1046F00083610A460021FCF785FB002008BD08B550
:1047000013460A460021FCF77DFB002008BD08B5D2
:1047100013460322C0F89422C0F85431C0F8641143
:10472000C0F858310A460021FCF774FB002008BD90
:1047300008B513460A460021FCF76CFB002008BDB3
:1047400008B50422C0F8942200231A461946FCF743
:1047500059FB002008BD08B50522C0F894220023AB
:104760001A461946FCF756FB002008BD10B5D0F8D4
:10477000D43203F1B00250F822408CB100EB820039
:1047800043687BB194F80002FF280DD09B6894F831
:10479000012221469847FF2384F80032002010BDF3
:1047A0000320FCE70020FAE70020F8E70A23038053
:1047B00000487047F4000020F8B506460F4F8221EC
:1047C0003846FFF7D4FB054601213846FFF7CFFBFB
:1047D000044681213846FFF7CAFB0DB11022AA71A9
:1047E0001CB1402222710022627118B14022027174
:1047F00000224271432333800048F8BD7800002036
:10480000F8B506460F4F82213846FFF7B0FB054644
:1048100001213846FFF7ABFB044681213846FFF7FC
:10482000A6FB0DB11022AA711CB1402222710022F8
:10483000627118B140220271002242714323338019
:104840000048F8BD78000020F8B506460F4F8221D9
:104850003846FFF78CFB054601213846FFF787FBFA
:10486000044681213846FFF782FB0DB11022AA7160
:104870001CB1002222710222627118B10022027161
:1048800002224271432333800048F8BD78000020A3
:1048900038B5D0F8D432B03350F8235095B104462F
:1048A000FCF768FAC5F80C02D4F8D432B03304EB44
:1048B00083046368DB6805F50371D5F80402984743
:1048C000002038BD0320FCE738B5D0F8C852D0F836
:1048D000D432B03350F8234084B301F00F0303EB1C
:1048E000830200EB820252694AB103EBC30C05EB71
:1048F0008C05ED69B2FBF5FC05FB1C2292B100238F
:10490000C4F81432D0F8D432B03300EB83004368DB
:104910001B69ABB10A4604F50471D4F80802984744
:10492000002038BD03EB830300EB830300245C61AC
:1049300023462246FCF766FA2046F2E70320F0E71A
:104940000020EEE7F0B583B0D0F8D43203F1B00226
:1049500050F8227000228DF80720ADF80420002FB7
:1049600078D004460D46097811F0600634D0202E28
:1049700069D1EA882AB311F0800F0ED16B7887F8DD
:104980000032EA883F2A1AD8D2B287F80122394683
:104990002046FFF7BCFE002659E0B03300EB83034E
:1049A0005B689B68394668789847EA88072A28BF79
:1049B000072239462046FFF794FE002647E04022B2
:1049C000E3E7B03300EB83035B689B680022294672
:1049D0006878984700263AE06F780B2F2ED8DFE8EA
:1049E00007F006362D2D2D2D2D2D2D2D152490F86B
:1049F0009C32032B04D02946FFF7F6FA032626E063
:104A0000022201A9FFF76DFE3E4620E090F89C329D
:104A1000032B04D02946FFF7E7FA032617E001220B
:104A20000DF10701FFF75DFE11E090F89C32032BBA
:104A30000DD02946FFF7D8FA032608E02946FFF7EC
:104A4000D3FA032603E02946FFF7CEFA03263046C1
:104A500003B0F0BD0326FAE738B504468121FCF720
:104A6000B1F9002584F8375001212046FCF7AAF956
:104A700084F8775182212046FCF7A4F984F84B5042
:104A80006564D4F8D43203F1B00254F822209AB10C
:104A9000B03304EB83035B685B689847D4F8D43287
:104AA000B03354F82300FCF76FF9D4F8D432B033A4
:104AB00044F82350C4F8BC52002038BD70B50446F9
:104AC0004FF40770FCF75CF9002849D005464FF415
:104AD0000772002100F012F9D4F8D432B03344F850
:104AE0002350C4F8BC52237C002B41D14FF40073F7
:104AF000022281212046FCF75AF9012684F837600A
:104B00004FF40073022231462046FCF750F984F836
:104B10007761102363640823032282212046FCF777
:104B200046F9012384F84B300026C5F80462D4F816
:104B3000D432B03304EB83035B681B689847C5F835
:104B40001462C5F81862D5F8042262B3257C1DBB37
:104B50004FF4007301212046FCF75CF9284670BD34
:104B6000D4F8D432B033002244F823200225F5E7EC
:104B70004023022281212046FCF719F9012684F8FE
:104B800037604023022231462046FCF710F984F8B2
:104B9000776110236364BEE7402301212046FCF7C0
:104BA00039F90025DAE70225D8E739B1D0F8D4324F
:104BB000B03300EB83004160002070470320704752
:104BC000D0F8D432B03350F823302BB1C3F80812E8
:104BD000C3F810220020704703207047D0F8D43269
:104BE000B03350F823301BB1C3F8041200207047D3
:104BF0000320704708B5D0F8D432B03350F82320E2
:104C00008AB1D2F814320BB1012008BD0123C2F8D9
:104C10001432D2F810328362D2F808228121FCF7D4
:104C2000F1F80020F1E70320EFE710B5D0F8D43217
:104C3000B03350F8232092B1047C44B94FF4007390
:104C4000D2F804220121FCF7E5F8204610BD4023EC
:104C5000D2F804220121FCF7DDF80024F5E7032453
:104C6000F3E70000DFF834D0FEF788FF0C480D4969
:104C70000D4A002302E0D458C4500433C4188C42B7
:104C8000F9D30A4A0A4C002301E013600432A2421D
:104C9000FBD300F041F8FBF76DFC704700000220E9
:104CA0000000002050010020605A00085001002040
:104CB00034210020FEE700000EB410B59DB01FABFC
:104CC000029006906FF000410A48079104910A494A
:104CD00053F8042B0591002402A9006801931B944A
:104CE00000F0A6F9029B1C701DB0BDE8104003B097
:104CF000704700BF000100200802FFFF0244034686
:104D0000934200D1704703F8011BF9E7014B186883
:104D1000704700BF0001002070B50D4B0D4D5B1BAF
:104D20009C100026A64209D100F0E8FD0A4D0B4B6D
:104D30005B1B9C100026A64205D170BD55F8043BB4
:104D400098470136EEE755F8043B98470136F2E7FD
:104D5000585A0008585A0008585A00085C5A000867
:104D6000704770470A44914200F1FF3300D1704709
:104D700010B511F8014B03F8014F9142F9D110BD64
:104D800038B50546002941D051F8043C0C1F002BD2
:104D9000B8BFE41800F0E0F81D4A136833B9636047
:104DA00014602846BDE8384000F0DCB8A34208D9BA
:104DB000206821188B4201BF19685B6809182160BF
:104DC000EDE71A465B680BB1A342FAD91168501897
:104DD000A0420BD120680144501883421160E0D1F9
:104DE00018685B68536008441060DAE702D90C2346
:104DF0002B60D6E7206821188B4204BF19685B68D6
:104E0000636004BF091821605460CAE738BD00BF61
:104E10003021002070B50F4E0C463168054611B99F
:104E200000F0AAFB30602146284600F0A5FB431C99
:104E300003D14FF0FF34204670BDC41C24F003049E
:104E4000A042F8D0211A284600F096FB0130F2D19A
:104E5000EFE700BF2C2100202DE9F843CD1C25F001
:104E6000030508350C2D38BF0C25002D064601DB47
:104E7000A94204D90C2333600020BDE8F883DFF891
:104E8000D48000F069F8D8F800301C4644BB2946AD
:104E90003046FFF7BFFF431C044658D1D8F8004006
:104EA0002746002F43D1002C4BD02368394630468B
:104EB00004EB030900F060FB814542D121686D1AC3
:104EC00029463046FFF7A6FF01303AD023682B442D
:104ED0002360D8F800305A6862BBC8F800700FE051
:104EE0002268521B20D40B2A17D96119A3422560CE
:104EF00018BF5960636808BFC8F8001062514B6062
:104F0000304600F02FF804F10B00231D20F00700BD
:104F1000C21A1CBF1B1AA350AFE76268A3420CBFA2
:104F2000C8F800205A60EBE723466468AEE73C46C9
:104F30007F68B6E71A465B68A342FBD10023536043
:104F4000DEE70C233360304600F00CF894E7056090
:104F5000D6E700BF302100200148FFF701BF00BFA6
:104F6000282100200148FFF7FCBE00BF28210020B7
:104F70002DE9F0478E681F46BE4282460C46904699
:104F8000334653D8B1F90C0010F4906F2BD06569FB
:104F90002368096905EB4505A3EB010905EBD57508
:104FA0007B1C6D104B44AB422A4684BF1D462A46EB
:104FB000430527D511465046FFF74EFF064658B326
:104FC00021694A46FFF7CEFEA38923F4906343F09C
:104FD0008003A381266165614E44A5EB0905266027
:104FE000A5603E463B461F4620683A46414600F0D3
:104FF000A9FAA3689B1BA36023683B44236000209D
:10500000BDE8F087504600F0C7FA06460028E1D117
:1050100021695046FFF7B4FE0C23CAF80030A3897B
:1050200043F04003A3814FF0FF30E9E73E46DBE762
:105030002DE9F04F98468B891B069DB007460D461B
:10504000144610D50B6973B94021FFF705FF28609E
:10505000286130B90C233B604FF0FF301DB0BDE834
:10506000F08F40236B610023099320238DF82930B2
:10507000CDF80C803023DFF89C818DF82A304FF07A
:10508000010923469A4613F8012B0AB1252AF9D1C2
:10509000BAEB040B0BD05B46224629463846FFF795
:1050A00067FF013000F0A780099A5A4409929AF8E4
:1050B0000030002B00F09F8000234FF0FF32CDE93D
:1050C00005230AF1010A049307938DF853301A93CC
:1050D0005446052214F8011B4E48FBF769F8049A60
:1050E000D8B9D00644BF20238DF85330110744BFF0
:1050F0002B238DF853309AF800302A2B15D0079ABD
:10510000544600204FF00A0C214611F8013B303B79
:10511000092B4BD9B0B1079214E0A0EB080309FAB0
:1051200003F313430493A246D2E7039B191D1B68A4
:105130000391002BBBBF5B4242F00202079307932F
:10514000B8BF049223782E2B0AD163782A2B32D150
:10515000039B1A1D1B68039243EAE3730234059311
:10516000DFF8C0A0217803225046FBF721F838B1C0
:10517000049BA0EB0A0040228240134301340493B5
:1051800014F8011B24488DF828100622FBF710F8AC
:10519000002836D0214B1BBB039B073323F00703AA
:1051A00008330393099B334409936AE70CFB0232EB
:1051B0000C460120A8E700230134059319464FF05F
:1051C0000A0C204610F8012B303A092A03D9002B8B
:1051D000C6D00591C4E70CFB012104460123F0E78A
:1051E00003AB00932A460E4B04A93846AFF3008068
:1051F000421C0646D6D1AB895B063FF52DAF099818
:105200002CE703AB00932A46054B04A9384600F06F
:1052100079F8EDE71C5A0008265A00080000000043
:10522000714F0008225A00082DE9F04716469846AB
:105230008A680B69DDF820909342B8BF134633604B
:1052400091F8432007460C460AB1013333602368C6
:10525000990642BF336802333360256815F00605AE
:1052600006D104F1190AE36832689B1AAB4226DCC6
:1052700094F843302268003B18BF012392062BD4D8
:1052800004F1430241463846C84701301ED0236826
:10529000226903F00603042B02BFE5683368ED1AA8
:1052A000A3680CBF25EAE57500259342C4BF9B1A8D
:1052B000ED1800261A34B5421AD1002008E0012367
:1052C000524641463846C847013003D14FF0FF30BF
:1052D000BDE8F0870135C6E7E1185A1C302081F897
:1052E0004300224494F8451082F843100233C7E784
:1052F0000123224641463846C8470130E6D00136F0
:10530000D9E700002DE9FF470F7E0C9E782F9146CC
:1053100080460C469A4601F1430207D8622F0AD80C
:10532000002F00F0D280582F00F0B78004F1420621
:1053300084F842703AE0A7F16303152BF6D801A177
:1053400051F823F09D530008B15300082D53000875
:105350002D5300082D5300082D530008B1530008A9
:105360002D5300082D5300082D5300082D5300081D
:10537000B1540008DB530008675400082D5300089F
:105380002D530008D35400082D530008DB530008A8
:105390002D5300082D5300086F54000833681A1D60
:1053A0001B68326004F1420684F8423001239DE01C
:1053B00033682068191D3160060601D51D6803E0B9
:1053C0004506FBD5B3F90050002D03DA2D236D42BD
:1053D00084F8433059480A2310E0216833680806EE
:1053E00053F8045B02D4490648BFADB26F2F53484F
:1053F000336059D10823002184F843106668A66001
:10540000002E05DB21682E4321F0040121604DD0E0
:105410001646B5FBF3F103FB1157C75D06F8017D96
:105420002F46BB420D46F4D9082B0BD12368DF076A
:1054300008D5236961689942DEBF302306F8013C34
:1054400006F1FF36921B2261CDF800A04B4603AA5D
:1054500021464046FFF7E8FE01304CD14FF0FF30C7
:1054600004B0BDE8F087236843F02003236034488C
:10547000782784F84570236831681F0651F8045B6B
:1054800002D45F0648BFADB23160D90744BF43F0D4
:10549000200323601DB11023ADE72848E9E7236806
:1054A00023F020032360F6E70A23A4E71646BBE7B0
:1054B000336825686169181D30602E061B6801D5A8
:1054C000196002E06806FBD51980002323611646A7
:1054D000BAE733681A1D32601E68626800213046E0
:1054E000FAF766FE08B1801B6060636823610023E1
:1054F00084F84330A8E72369324649464046D047FE
:105500000130ABD023689B0713D4E068039B98421B
:10551000B8BF1846A4E70123324649464046D04763
:1055200001309BD00135E36803995B1AAB42F2DC92
:10553000EBE7002504F11906F5E700BF2D5A000836
:105540003E5A0008884210B501EB020402D9844299
:10555000234607D8431EA14207D011F8012B03F8B8
:10556000012FF8E70244824200D110BD13F8011D5B
:1055700002F8011DF7E7000038B5064D0023044688
:1055800008462B60FBF7C6F9431C02D12B6803B118
:10559000236038BD242100202DE9F0410746144640
:1055A0000D4621B9BDE8F0411146FFF755BC2AB9B7
:1055B000FFF7E6FB25462846BDE8F08100F01AF823
:1055C0008442064602D8B4EB500FF4D82146384640
:1055D000FFF742FC804608B94546ECE7B442224654
:1055E000294628BF3246FFF7BDFB29463846FFF75C
:1055F000C7FBF1E751F8043C181F002BBCBF0B5848
:10560000C01870472DE9F047089D0F4604468C46A8
:10561000002B48D18A42164661D9B2FA82F34BB1C7
:10562000C3F1200201FA03FC20FA02F29E4042EA92
:105630000C0C9C404FEA164EB7B2BCFBFEF1220C9C
:105640000EFB11CC42EA0C4201FB07F0904209D953
:10565000B21801F1FF3C80F0EE80904240F2EB8006
:1056600002393244121AA4B2B2FBFEF00EFB102231
:1056700044EA024400FB07F7A74209D9341900F1B4
:10568000FF3280F0DA80A74240F2D78034440238FB
:1056900040EA0140E41B00211DB1DC400023C5E9C4
:1056A0000043BDE8F0878B4206D90DB1C5E9000182
:1056B00000210846BDE8F087B3FA83F1002948D1FC
:1056C000BB4202D3824200F20781841A67EB0302D5
:1056D00001209446002DE4D0C5E9004CE1E7002A02
:1056E00000F09280B2FA82F3002B40F0A8808A1A70
:1056F0004FEA164E1FFA86FC0121200CB2FBFEF782
:105700000EFB172240EA02420CFB07F0904207D939
:10571000B21807F1FF3802D2904200F2E280474609
:10572000121AA4B2B2FBFEF00EFB102244EA0244AD
:105730000CFB00FCA44507D9341900F1FF3202D25A
:10574000A44500F2CB801046A4EB0C0440EA0740CD
:10575000A2E7C1F120068B4022FA06FC4CEA030CBA
:1057600007FA01F420FA06F3F7404FEA1C492343F5
:1057700000FA01F81FFA8CFEB7FBF9F01C0C09FBCC
:10578000107744EA074400FB0EF7A74202FA01F241
:105790000AD91CEB040400F1FF3A80F09B80A74279
:1057A00040F2988002386444E41B9FB2B4FBF9F3E2
:1057B00009FB134447EA044403FB0EFEA64509D93E
:1057C0001CEB040403F1FF3780F08280A6457FD9EB
:1057D000023B644443EA0040A4EB0E04A0FB02E752
:1057E000BC427346B94663D360D05DB1B8EB0302E7
:1057F00064EB090404FA06F622FA01F31E43CC40D6
:10580000C5E9006400214CE76208480842EAC1711A
:105810000B0C43EA00438AB242EA0342B3FBF6F1BF
:10582000E407B4463746B6461F23B0FBF6F0D21B5A
:1058300041EA004161E7614614E7104628E7C3F1F9
:10584000200120FA01F29E4027FA01F19F403A43DD
:105850004FEA164E1FFA86FCB1FBFEF70EFB17103F
:10586000110C41EA004107FB0CF8884504FA03F4E7
:105870003AD9711807F1FF3001D288451FD8A1EB42
:105880000801B1FBFEF808FB0CF70EFB181192B2F1
:1058900042EA0142BA422FD2B21808F1FF31C6D211
:1058A000BA42C4D2A8F102013244C0E7F0459CD20A
:1058B000BEEB020367EB0C070138B94695E7A6EB90
:1058C00008084144B81EB1FBFEF808FB0CF7DCE702
:1058D0003B467FE7504667E70846FBE6344402381C
:1058E00032E7023F32441BE7A1EB08013846B1FB27
:1058F000FEF808FB0CF7C8E7414698E7F8B500BF8B
:10590000F8BC08BC9E467047F8B500BFF8BC08BCA0
:045910009E467047F8
:105914004F2070657263656E7475616C20646F20CE
:1059240066756E646F20646520657363616C6120C5
:10593400646F20412F4420656820646520256C75C0
:105944002E256C75252025252C6170726573656E76
:1059540074616E646F20756D612074656E73616F20
:1059640020646520256C75206D562000447574797B
:10597400204379636C6520617475616C3A20256CF1
:105984007525250A00000000447574792043796365
:105994006C6520617475616C3A2031303025250ABC
:1059A4000000000044757479204379636C652061BC
:1059B4007475616C3A203025250A0000424C41433D
:1059C4004B50494C4C205669727475616C20436F7E
:1059D4006D506F727400000053544D6963726F65AB
:1059E4006C656374726F6E69637300004344432093
:1059F400436F6E666967000043444320496E7465D3
:105A04007266616365000000000000000000000091
:105A14000102030406070809232D302B2000686CBB
:105A24004C006566674546470030313233343536BD
:105A340037383941424344454600303132333435F6
:0C5A440036373839616263646566000023
:085A500050A7FF7F01000000D8
:045A5800ED02000853
:045A5C00C502000877
:105A6000EA0B0000B90000001A030000000000006B
:105A70000000000000000000000000000000000026
:105A800000000000040309041201000202020040A9
:105A9000830440570002010203010000B10900081D
:105AA000BD090008810A00085D0A0008490A0008CB
:105AB0009D0A0008C10A0008290B0008E50A000831
:105AC000E90A0008F10A0008ED0A000801000000D8
