:020000040800F2
:10000000000002201D1800087D0500087F0500087B
:100010008105000883050008850500080000000030
:10002000000000000000000000000000870500083C
:1000300089050008000000008B0500088D050008F8
:100040006D1800086D1800086D1800086D1800087C
:100050006D1800086D1800086D1800086D1800086C
:100060006D1800086D1800086D1800086D1800085C
:100070006D1800086D1800086D1800086D1800084C
:100080006D1800086D1800086D18000800000000C9
:100090000000000000000000000000006D180008D3
:1000A0006D1800086D1800086D1800086D1800081C
:1000B0006D1800086D1800086D1800086D1800080C
:1000C0006D1800086D1800086D1800086D180008FC
:1000D0006D1800086D1800086D1800080000000079
:1000E0006D1800086D1800086D1800080000000069
:1000F0000000000000000000000000006D18000873
:10010000000000006D1800086D1800086D18000848
:1001100000000000000000000000000000000000DF
:100120006D1800086D1800086D1800086D1800089B
:100130006D18000800000000000000000000000032
:100140000000000000000000000000006D18000822
:100150006D1800086D1800086D1800086D1800086B
:100160006D1800086D180008000000000000000075
:10017000000000000000000000000000000000007F
:10018000000000006D1800080000000000000000E2
:080190006D1800086D1800084D
:1001980053B94AB9002908BF00281CBF4FF0FF31E6
:1001A8004FF0FF3000F00CB8ADF1080C6DE904CE4B
:1001B80001F086FBDDF804E0DDE9022304B07047B6
:1001C800704700BF0348044B834202D0034B03B17E
:1001D8001847704714000020140000200000000099
:1001E8000548064B1B1AD90F01EBA301491002D091
:1001F800034B03B118477047140000201400002077
:100208000000000010B5064C237843B9FFF7DAFF69
:10021800044B13B10448AFF300800123237010BDD1
:100228001400002000000000C01B000808B5054BA2
:100238001BB105490548AFF30080BDE80840FFF74A
:10024800CFBF00BF0000000018000020C01B00083E
:100258002DE9F04188B003AD00240394049405947B
:10026800069407940094264B1A6B42F004021A6312
:100278001A6B02F004020092009A01941A6B42F081
:1002880080021A631A6B02F080020192019A0294AA
:100298001A6B42F001021A631B6B03F0010302930D
:1002A800029BDFF8648022464FF40051404601F07B
:1002B80059F8144E2246B821304601F053F84FF44D
:1002C8000053039301270497059406942946404652
:1002D80000F064FFB8230393049705940694294615
:1002E800304600F05BFF402303934FF488130493D8
:1002F80005942946304600F051FF08B0BDE8F0816A
:1003080000380240000002400008024072B6FEE7D2
:1003180000B587B0002302930393049305930093D9
:1003280001931348134A0260436083604FF6FF72DB
:10033800C2600361836101F06DF990B94FF4805395
:10034800029302A90A4801F09EF960B900230093BC
:1003580001936946064801F015FA30B907B05DF80F
:1003680004FBFFF7D3FFFFF7D1FFFFF7CFFF00BF75
:10037800380000200008004000B585B00023009335
:100388000193029303931448144A02604FF4803295
:10039800426083600361037680F82030C362104AAC
:1003A8008262C3600122C26180F83030426100F08D
:1003B800EFF960B900230093012201920293694684
:1003C800054800F015FB20B905B05DF804FBFFF700
:1003D8009DFFFFF79BFF00BF800000200020014029
:1003E8000100000F10B594B008AC3022002120465F
:1003F80001F039FA002303930493059306930793B6
:1004080001931E4A116C41F080511164126C02F084
:1004180080520192019A0293194A116841F44041AD
:100428001160126802F440420292029A0222089273
:1004380001210B9110210C910E920F930823109318
:1004480060231193129204231393204600F0A6FB15
:1004580080B90F23039302230493002305934FF4D9
:10046800805206920793032103A800F0E7FD18B90C
:1004780014B010BDFFF74AFFFFF748FF00380240ED
:100488000070004008B501F003F8FFF7ABFFFFF775
:10049800DFFEFFF73DFFFFF76FFF3EE0204600F06D
:1004A800A3FA2E4B186042E02D4909688B424BD3C2
:1004B8002C4B05221A602B4D2A682B4C002AD4BFDE
:1004C800002201220821204600F04CFF2A68012A58
:1004D800D4BF002201221021204600F043FF2A68E1
:1004E800022AD4BF002201222021204600F03AFF30
:1004F8002A68032AD4BF002201224021204600F0A6
:1005080031FF2A68042AD4BF002201228021204614
:1005180000F028FF1E2000F0E7FF144C204600F0F2
:1005280063F96421204600F003FA0028B6D00F488A
:1005380000F0DEF9094B1B680D4A12689342B3D8E4
:10054800084B00221A60B6E79B1A9B00891AB3FB76
:10055800F1F30133034A1360ADE700BF3400002014
:100568000000002030000020000002408000002031
:1005780004000020FEE7FEE7FEE7FEE7FEE770471F
:100588007047704708B500F09DFF08BD82B0002194
:1005980000910B4B5A6C42F480425A645A6C02F434
:1005A80080420092009A01911A6C42F080521A64BB
:1005B8001B6C03F080530193019B02B0704700BF8E
:1005C8000038024000B589B00023039304930593D3
:1005D80006930793026803F1804303F590339A4228
:1005E80002D009B05DF804FB0021019103F58C33BA
:1005F8005A6C42F480725A645A6C02F48072019206
:10060800019A02911A6B42F001021A631B6B03F004
:1006180001030293029B012303930323049303A979
:10062800014800F0BBFDDCE7000002400268094B0E
:100638009A4200D0704782B000230193064B1A6C8F
:1006480042F004021A641B6C03F004030193019B3B
:1006580002B0704700080040003802404A4B5A6810
:1006680022F440325A605A6841680A435A60026864
:10067800536823F48073536002685368016943EA3E
:10068800012353600268536823F040735360026883
:10069800536881680B4353600268936823F40063CE
:1006A800936002689368C1680B439360826A374B12
:1006B8009A4257D00268936823F070639360026887
:1006C8009368816A0B4393600268936823F04053F0
:1006D800936002689368C16A0B43936002689368E9
:1006E80023F00203936002689368017E43EA4103A2
:1006F800936090F82030002B3FD00268536843F491
:10070800006353600268536823F4604353600168D0
:100718004B68426A013A43EA42334B600268D36A43
:1007280023F47003D3620168CB6AC269013A43EAD1
:100738000253CB620268936823F4007393600268E3
:10074800936890F8301043EA4123936002689368F5
:1007580023F48063936002689368416943EA8123C4
:10076800936070470268936823F07063936002682F
:10077800936823F040539360B0E70268536823F40A
:1007880000635360CAE700BF002301400100000F67
:1007980038B310B50446036C43B1236C13F0100F43
:1007A8000BD00120002384F83C3010BDFFF70AFF6E
:1007B8000023636484F83C30EFE7236C23F4885308
:1007C80023F0020343F0020323642046FFF746FFA9
:1007D80000206064236C23F0030343F001032364C7
:1007E800E0E701207047000082B00023019390F8F1
:1007F8003C30012B6ED0012380F83C3003689A68A6
:1008080012F0010F13D19A6842F001029A60344B3A
:100818001B68344AA2FB03239B0C03EB430301939D
:1008280002E0019B013B0193019B002BF9D1026877
:10083800936813F0010F42D0036C23F4E06323F0B4
:10084800010343F480730364536813F4806F05D085
:10085800036C23F4405343F480530364036C13F490
:10086800805F19D0436C23F006034364002380F8AB
:100878003C306FF0220313601B4B5B6813F01F0FB3
:100888000DD103689A6812F0405F25D19A6842F04A
:1008980080429A6000201BE000234364E6E7036877
:1008A800124A934201D0002012E09A6812F0405F89
:1008B80014D19A6842F080429A60002008E0036CE4
:1008C80043F010030364436C43F0010343640020C6
:1008D80002B070470220FBE70020F9E70020F7E7A5
:1008E8001000002083DE1B4300230140002001404C
:1008F80090F83C30012B19D0012380F83C30026875
:10090800936823F00103936003689B6813F0010F59
:1009180007D1036C23F4885323F0010343F0010348
:100928000364002380F83C30184670470220704763
:1009380070B504460D4603689A6812F4806F03D0B8
:100948009B6813F4807F19D100F0C8FD0646236820
:100958001A6812F0020F20D1B5F1FF3FF7D0B5B9F0
:1009680023681B6813F0020FF1D1236C43F00403D2
:100978002364002384F83C30032032E0036C43F006
:1009880020030364002380F83C30012029E000F0B4
:10099800A5FD801BA842DAD9E2E76FF012021A60BF
:1009A800236C43F40073236423689A6812F0405F51
:1009B80016D1207EB0B9DA6A12F4700F03D09B68A2
:1009C80013F4806F0DD1236C23F480732364236C9C
:1009D80013F4805F05D1236C43F00103236400E026
:1009E800002070BD0020FCE70368D86C7047000049
:1009F80030B482B00022019290F83C20012A00F025
:100A0800C0800346012280F83C200A68092A40D9A0
:100A18000468E06892B202EB42021E3A4FF0070CFB
:100A28000CFA02F220EA0202E2601C68E0680A8816
:100A380002EB42021E3A8D6805FA02F20243E260B6
:100A48004A68062A3CD81C68606B02EB8202053AA9
:100A58004FF01F0C0CFA02F220EA020262631C68D3
:100A6800606B4A6802EB8202053AB1F800C00CFAE2
:100A780002F2024362631868434A904250D01868F1
:100A8800414A904259D0002083F83C0002B030BC63
:100A980070470468206992B202EB42024FF0070CDB
:100AA8000CFA02F220EA020222611C6820690A8814
:100AB80002EB42028D6805FA02F202432261BFE7A7
:100AC8000C2A16D81D68286B02EB8202233A1F24D1
:100AD80004FA02F220EA02022A631D68286B4A68B7
:100AE80002EB8202233A0C8804FA02F202432A63D8
:100AF800C1E71D68E86A02EB8202413A1F2404FA42
:100B080002F220EA0202EA621D68E86A4A6802EB19
:100B18008202413A0C8804FA02F20243EA62AAE726
:100B28000A68122AABD1194A506820F400005060B4
:100B3800506840F480005060A1E70A681448824277
:100B480001D0112A9FD1114A506820F480005060CA
:100B5800506840F40000506009680D4A914292D1F3
:100B68000C4A12680C49A1FB0212920C02EB820299
:100B780052000192019A002A85D0019A013A019205
:100B8800F8E7022082E700BF00200140002301406F
:100B9800120000101000002083DE1B43002800F024
:100BA800E08170B582B00446036813F0010F3BD0B2
:100BB8009F4B9B6803F00C03042B2CD09C4B9B6829
:100BC80003F00C03082B21D06368B3F5803F4FD0A6
:100BD800B3F5A02F52D0964B1A6822F480321A60CF
:100BE8001A6822F480221A606368002B50D000F043
:100BF80075FC05468E4B1B6813F4003F14D100F0BA
:100C08006DFC401B6428F5D90320B1E1884B5B6873
:100C180013F4800FD8D0864B1B6813F4003F03D021
:100C28006368002B00F09F81236813F0020F54D0F3
:100C38007F4B9B6813F00C0F3ED07D4B9B6803F0F5
:100C48000C03082B33D0E368002B68D0794B0122C2
:100C58001A6000F043FC0546754B1B6813F0020F41
:100C680054D100F03BFC401B0228F5D903207FE15A
:100C78006F4A136843F480331360B5E76C4B1A6806
:100C880042F480221A601A6842F480321A60ABE794
:100C980000F024FC0546664B1B6813F4003FC3D0E4
:100CA80000F01CFC401B6428F5D9032060E1604B70
:100CB8005B6813F4800FC6D15D4B1B6813F0020FFD
:100CC80003D0E368012B40F05081594A136823F0A0
:100CD800F803216943EAC1031360236813F0080F7E
:100CE80042D063696BB3534B0122C3F8802E00F0E6
:100CF800F5FB05464E4B5B6F13F0020F34D100F045
:100D0800EDFB401B0228F5D9032031E1484A13685E
:100D180023F0F803216943EAC1031360DDE7454B7B
:100D280000221A6000F0DAFB0546414B1B6813F0FD
:100D3800020FD2D000F0D2FB401B0228F5D90320C5
:100D480016E13C4B0022C3F8802E00F0C7FB054695
:100D5800374B5B6F13F0020F06D000F0BFFB401B50
:100D68000228F5D9032003E1236813F0040F77D094
:100D78002F4B1B6C13F0805F33D1002301932C4B56
:100D88001A6C42F080521A641B6C03F08053019372
:100D9800019B0125284B1B6813F4807F23D0A3688F
:100DA800012B34D0052B38D0214B1A6F22F00102C9
:100DB8001A671A6F22F004021A67A368002B3DD045
:100DC80000F08CFB06461A4B1B6F13F0020F46D13E
:100DD80000F084FB801B41F288339842F3D903204A
:100DE800C6E00025D6E7144A136843F480731360FD
:100DF80000F074FB0646104B1B6813F4807FCED1BD
:100E080000F06CFB801B0228F5D90320B0E0084AEB
:100E1800136F43F001031367CFE7054B1A6F42F0D6
:100E280004021A671A6F42F001021A67C5E700BF89
:100E380000380240000047420070004000F04EFBBE
:100E48000646524B1B6F13F0020F08D000F046FB0A
:100E5800801B41F288339842F3D9032088E0EDB92A
:100E6800A369002B00F08380484A926802F00C02C4
:100E7800082A51D0022B17D0454B00221A6600F0E1
:100E88002DFB0446414B1B6813F0007F42D000F055
:100E980025FB001B0228F5D9032069E03B4A136CA7
:100EA80023F080531364DBE7394B00221A6600F005
:100EB80015FB0546354B1B6813F0007F06D000F084
:100EC8000DFB401B0228F5D9032051E0E369226A93
:100ED8001343626A43EA8213A26A5208013A43EA58
:100EE8000243E26A43EA0263284A5360284B01221C
:100EF8001A6600F0F3FA0446244B1B6813F0007FCF
:100F080006D100F0EBFA001B0228F5D903202FE0E8
:100F180000202DE000202BE0012B2BD01B4B5B6821
:100F280003F48001E269914226D103F03F02216A6D
:100F38008A4223D1616A47F6C0721A40B2EB811F18
:100F48001ED103F44031A26A5208013AB1EB024FB4
:100F580018D103F07063E26AB3EB026F14D100207A
:100F680006E001207047012002E0012000E0002097
:100F780002B070BD0120FBE70120F9E70120F7E787
:100F88000120F5E70120F3E70120F1E700380240EE
:100F98000000474208B5264B9B6803F00C03042B5E
:100FA80041D0082B41D1224B5A6802F03F025B68BE
:100FB80013F4800F12D01E4B5968C1F388111D48D5
:100FC8000023A1FB0001FFF7E3F8194B5B68C3F3AB
:100FD800014301335B00B0FBF3F008BD144B5868C4
:100FE800C0F388104FEA401CBCEB000C6EEB0E0EF1
:100FF8004FEA8E1343EA9C634FEA8C11B1EB0C0164
:1010080063EB0E03DB0043EA5173C90011EB000CDC
:1010180043F10003990200234FEA8C2041EA9C51D6
:10102800FFF7B6F8D1E70348D7E70348D5E700BF8D
:101038000038024040787D010024F400002800F0C8
:101048009B8070B50D4604464F4B1B6803F00703A1
:101058008B4208D2CBB24C4A1370136803F00703D3
:101068008B4240F08B80236813F0020F17D013F0E7
:10107800040F04D0454A936843F4E053936023680F
:1010880013F0080F04D0414A936843F46043936017
:101098003E4A936823F0F003A1680B4393602368EA
:1010A80013F0010F32D06368012B21D09A1E012A58
:1010B80025D9364A126812F0020F61D033498A687E
:1010C80022F0030213438B6000F008FA06462F4B08
:1010D8009B6803F00C036268B3EB820F16D000F034
:1010E800FDF9801B41F288339842F0D9032042E091
:1010F800264A126812F4003FE0D101203BE0234A5F
:10110800126812F0007FD9D1012034E01E4B1B6811
:1011180003F00703AB4207D9EAB21B4B1A701B68EE
:1011280003F00703AB422DD1236813F0040F06D058
:10113800164A936823F4E053E1680B4393602368ED
:1011480013F0080F07D0114A936823F4604321690C
:1011580043EAC1039360FFF71DFF0C4B9B68C3F381
:1011680003130B4AD35CD8400A4B18600A4B186823
:1011780000F068F9002070BD012070470120FAE7EF
:101188000120F8E70120F6E7003C02400038024061
:10119800D81B0008100000200C00002000230F2B93
:1011A80000F2D78070B582B065E085684FEA430EDB
:1011B800032404FA0EF425EA0405CC6804FA0EF4B4
:1011C8002C438460446824EA02044A68C2F300128B
:1011D8009A40224342605CE0DC08083450F824203E
:1011E80003F00705AD004FF00F0E0EFA05FE22EAD8
:1011F8000E0E0A69AA4042EA0E0240F824205CE07A
:10120800042200E0002202FA0EF22A430234514D71
:1012180045F82420504A94686FEA0C0224EA0C0529
:101228004E6816F4801F01D04CEA04054A4CA560AC
:10123800E46802EA04054E6816F4001F01D04CEA7F
:101248000405454CE560646802EA04054E6816F436
:10125800003F01D04CEA04053F4C656024682240F9
:101268004D6815F4803F01D04CEA04023A4C2260E4
:1012780001330F2B6BD801229A400C6804EA020C48
:1012880032EA0404F4D14C6804F00304013C012C54
:101298008BD94A6802F00302032A09D0C4685D00AA
:1012A8000322AA4024EA02048A68AA402243C260B0
:1012B8004A6802F00302022A8ED004684FEA430EFD
:1012C800032202FA0EF224EA02044A6802F0030238
:1012D80002FA0EF2224302604A6812F4403FC7D075
:1012E800002201921D4A546C44F480445464526CA8
:1012F80002F480420192019A9C08A51C154A52F8F2
:10130800255003F0030E4FEA8E0E0F2202FA0EF25A
:1013180025EA0205124A90423FF474AF02F5806252
:1013280090420ED002F5806290420CD002F58062A5
:1013380090420AD002F5806290423FF461AF0722E2
:1013480061E701225FE702225DE703225BE702B063
:1013580070BD704700380140003C01400038024031
:10136800000002400AB18161704709048161704739
:10137800002808DB0901C9B200F1604000F56140AE
:1013880080F80013704700F00F000901C9B2014B43
:101398001954704714ED00E000B500F00700C0F1E3
:1013A800070CBCF1040F28BF4FF0040C031D062BDB
:1013B8000FD9C31E4FF0FF3E0EFA0CF021EA0001D0
:1013C80099400EFA03FE22EA0E0241EA02005DF895
:1013D80004FB0023EEE70000074AD36823F4E06328
:1013E8001B041B0C000200F4E060034343F0BF63DE
:1013F80043F40033D360704700ED00E010B50446B5
:10140800054BD868C0F30220FFF7C6FF0146204607
:10141800FFF7AEFF10BD00BF00ED00E00138B0F1EE
:10142800807F0BD24FF0E0235861054AF02182F803
:1014380023100020986107221A6170470120704725
:1014480000ED00E010B504460E4B1A784FF47A739D
:10145800B3FBF2F30C4A1068B0FBF3F0FFF7DEFFC2
:1014680068B90F2C01D901200AE0002221464FF06B
:10147800FF30FFF7C3FF054B1C60002000E0012090
:1014880010BD00BF08000020100000200C00002044
:1014980008B50B4B1A6842F400721A601A6842F4D5
:1014A80080621A601A6842F480721A600320FFF79B
:1014B80093FF0F20FFF7C6FFFFF768F8002008BD6D
:1014C800003C0240034A1168034B1B780B4413602D
:1014D800704700BFC800002008000020014B1868B2
:1014E800704700BFC800002038B50446FFF7F6FF74
:1014F8000546B4F1FF3F02D0044B1B781C44FFF7AC
:10150800EDFF401BA042FAD338BD00BF0800002001
:1015180010B4036A046A24F001040462846924F0A4
:10152800F00C4CEA021223F00A030B4382610362B7
:101538005DF8044B704710B4036A046A24F0100481
:101548000462846924F4704C4CEA023223F0A0034C
:1015580043EA0113826103625DF8044B70478368B4
:1015680023F070030B4343F00703836070470000C8
:101578000368274A90420ED0B0F1804F0BD0A2F5F5
:101588007C42904207D002F58062904203D002F577
:101598008062904203D123F070034A6813431C4AC7
:1015A80090421AD0B0F1804F17D0A2F57C429042F9
:1015B80013D002F5806290420FD002F5806290420B
:1015C8000BD002F59A32904207D002F58062904221
:1015D80003D002F58062904203D123F44073CA68B5
:1015E800134323F080034A6913438A68C2620A6876
:1015F8008262074A904207D0026842F00402026001
:1016080001224261036070470A690263F4E700BF80
:101618000000014040B310B5044690F83D30F3B1E6
:10162800022384F83D30214651F8040BFFF7A0FF50
:10163800012384F8463084F83E3084F83F3084F83B
:10164800403084F8413084F8423084F8433084F8DC
:10165800443084F8453084F83D30002010BD80F8CF
:101668003C30FEF7E3FFDBE70120704710B48468E5
:1016780024F47F4C42EA03220A4342EA0C028260C5
:101688005DF8044B704790F83C30012B78D010B5CA
:101698000446012380F83C30022380F83D3002687C
:1016A800936823F47F4323F0770393600B68602BE0
:1016B8004CD023D8402B54D011D8202B03D00AD893
:1016C8000BB1102B05D119462068FFF748FF002001
:1016D80028E0012026E0302BF5D0012022E0502B15
:1016E8000AD1CA6849680068FFF712FF50212068CC
:1016F800FFF735FF002015E0012013E0B3F5805F08
:101708003AD0B3F5005F14D0702B37D1CB684A6854
:1017180089680068FFF7AAFF2268936843F0770397
:1017280093600020012384F83D30002384F83C3086
:1017380010BDCB684A6889680068FFF797FF226880
:10174800936843F4804393600020EBE7CA684968D4
:101758000068FFF7F0FE60212068FFF700FF002017
:10176800E0E7CA6849680068FFF7D2FE40212068B0
:10177800FFF7F5FE0020D5E70020D3E70120D1E7E9
:101788000220704790F83C20012A35D010B4034657
:10179800012280F83C20022280F83D20026850682F
:1017A800946820F0700C086840EA0C0050601A68D1
:1017B8001248824212D0B2F1804F0FD0A0F57C407F
:1017C80082420BD000F58060824207D000F580602D
:1017D800824203D000F59A30824204D124F080047A
:1017E800496821439160012283F83D20002083F855
:1017F8003C005DF8044B7047022070470000014030
:10180800034AD2F8883043F47003C2F8883070472E
:1018180000ED00E0DFF834D0FFF7F2FF0C480D4987
:101828000D4A002302E0D458C4500433C4188C4233
:10183800F9D30A4A0A4C002301E013600432A24299
:10184800FBD300F019F8FEF71DFE704700000220D8
:101858000000002014000020F81B000814000020DD
:10186800CC000020FEE702440346934200D17047B3
:1018780003F8011BF9E7000070B50D4B0D4D5B1B1C
:101888009C100026A64209D100F096F90A4D0B4B90
:101898005B1B9C100026A64205D170BD55F8043B81
:1018A80098470136EEE755F8043B98470136F2E7CA
:1018B800F01B0008F01B0008F01B0008F41B0008D0
:1018C8002DE9F047089D0F4604468C46002B48D169
:1018D8008A42164661D9B2FA82F34BB1C3F12002AB
:1018E80001FA03FC20FA02F29E4042EA0C0C9C40EA
:1018F8004FEA164EB7B2BCFBFEF1220C0EFB11CC20
:1019080042EA0C4201FB07F0904209D9B21801F1F2
:10191800FF3C80F0EE80904240F2EB800239324486
:10192800121AA4B2B2FBFEF00EFB102244EA0244E3
:1019380000FB07F7A74209D9341900F1FF3280F0FC
:10194800DA80A74240F2D7803444023840EA0140A6
:10195800E41B00211DB1DC400023C5E90043BDE8BC
:10196800F0878B4206D90DB1C5E900010021084670
:10197800BDE8F087B3FA83F1002948D1BB4202D30E
:10198800824200F20781841A67EB03020120944621
:10199800002DE4D0C5E9004CE1E7002A00F0928070
:1019A800B2FA82F3002B40F0A8808A1A4FEA164E4A
:1019B8001FFA86FC0121200CB2FBFEF70EFB172252
:1019C80040EA02420CFB07F0904207D9B21807F12F
:1019D800FF3802D2904200F2E2804746121AA4B2BF
:1019E800B2FBFEF00EFB102244EA02440CFB00FCA2
:1019F800A44507D9341900F1FF3202D2A44500F2F8
:101A0800CB801046A4EB0C0440EA0740A2E7C1F1E2
:101A180020068B4022FA06FC4CEA030C07FA01F474
:101A280020FA06F3F7404FEA1C49234300FA01F86D
:101A38001FFA8CFEB7FBF9F01C0C09FB107744EA7F
:101A4800074400FB0EF7A74202FA01F20AD91CEB81
:101A5800040400F1FF3A80F09B80A74240F298808E
:101A680002386444E41B9FB2B4FBF9F309FB134446
:101A780047EA044403FB0EFEA64509D91CEB0404FF
:101A880003F1FF3780F08280A6457FD9023B64448A
:101A980043EA0040A4EB0E04A0FB02E7BC427346F5
:101AA800B94663D360D05DB1B8EB030264EB0904B7
:101AB80004FA06F622FA01F31E43CC40C5E9006495
:101AC80000214CE76208480842EAC1710B0C43EA5E
:101AD80000438AB242EA0342B3FBF6F1E407B44694
:101AE8003746B6461F23B0FBF6F0D21B41EA004149
:101AF80061E7614614E7104628E7C3F1200120FAA0
:101B080001F29E4027FA01F19F403A434FEA164EF0
:101B18001FFA86FCB1FBFEF70EFB1710110C41EA09
:101B2800004107FB0CF8884504FA03F43AD9711808
:101B380007F1FF3001D288451FD8A1EB0801B1FB9E
:101B4800FEF808FB0CF70EFB181192B242EA0142AC
:101B5800BA422FD2B21808F1FF31C6D2BA42C4D263
:101B6800A8F102013244C0E7F0459CD2BEEB020363
:101B780067EB0C070138B94695E7A6EB080841441E
:101B8800B81EB1FBFEF808FB0CF7DCE73B467FE725
:101B9800504667E70846FBE63444023832E7023F1E
:101BA80032441BE7A1EB08013846B1FBFEF808FBFD
:101BB8000CF7C8E7414698E7F8B500BFF8BC08BC81
:101BC8009E467047F8B500BFF8BC08BC9E467047F3
:101BD80000000000000000000102030406070809D5
:081BE800E0FCFF7F010000009A
:041BF00035020008B2
:041BF4000D020008D6
:101BF800360F0000C70000000100000010000000C0
:041C08000024F400C0
:040000050800181DBA
:00000001FF
